:020000040800F2
:1000000068050020010100089D3600089F360008A1
:10001000A3360008A7360008AB3600080000000031
:10002000000000000000000000000000AF360008E3
:10003000B136000800000000B3360008B5360008ED
:100040001B0100081B0100081B0100081B01000820
:100050001B0100081B0100081B0100081B01000810
:100060001B0100081B0100081B0100081B01000800
:100070001B0100081B0100081B0100081B010008F0
:100080001B0100081B0100081B0100081B010008E0
:100090001B0100081B0100081B0100081B010008D0
:1000A0001B0100081B0100081B0100081B010008C0
:1000B000B73600081B010008CD3600081B010008F8
:1000C0001B0100081B0100081B0100081B010008A0
:1000D0001B010008AF2A00081B0100081B010008D3
:1000E0001B0100081B0100081B010008DFF80CD0F1
:1000F00003F0FAFA004800477B3400086805002046
:100100000648804706480047FEE7FEE7FEE7FEE7B1
:10011000FEE7FEE7FEE7FEE7FEE7FEE70102000876
:10012000ED0000080CB50020019000906B480068BD
:1001300040F480306949086000BF6848006800F4F6
:10014000003000900198401C0190009818B9019867
:10015000B0F5A06FF1D16148006810F4003F02D003
:100160000120009001E0002000900098012842D179
:100170005B48006840F01000594908600846006874
:1001800020F0030008600846006840F002000860A4
:1001900052484068514948600846406848600846EF
:1001A000406840F4806048600846406820F47C1055
:1001B00048600846406840F4E81048600846006817
:1001C00040F08070086000BF4448006810F0007F75
:1001D000FAD04248406820F0030040494860084691
:1001E000406840F00200486000BF3C48406800F0B2
:1001F0000C000828F9D10CBD10B5FFF793FF10BD16
:1002000010B53648006840F00100344908600846DF
:10021000406834490840314948600846006832491E
:1002200008402E4908600846006820F480200860D5
:100230000846406820F4FE0048604FF41F008860C4
:10024000FFF7DAFF4FF000602849086010BD10B5D5
:10025000002100200022214B5B6803F00C0121B13A
:10026000042906D0082928D107E0214B214C23601E
:1002700027E01F4B1F4C236023E0184B5B6803F4FF
:100280007010164B5B6803F48032022303EB90403E
:1002900022B9194B4343174C23600DE00F4B5B68A9
:1002A00013F4003F04D0144B4343124C236003E08B
:1002B0000F4B43430F4C236003E00D4B0D4C236069
:1002C00000BF00BF054B5B68C3F303130B4CE15C3D
:1002D000084B1B68CB40074C236010BD0010024048
:1002E000002002400000FFF8FFFFF6FE08ED00E0EE
:1002F00000127A000000002000093D0004000020E8
:1003000031490143314A1160704770B50021002323
:100310000F22C4780CB32D4C246804F4E064C4F5B7
:10032000E064210AC1F10403CA40447804FA03F1ED
:100330008478144021430901254C0678A15504789E
:1003400004F01F050124AC4005786D114FF0E02644
:1003500006EB8505C5F8004109E0047804F01F05A7
:100360000124AC401B4D0678761145F8264070BD3F
:10037000194A0A400243154B1B1F1A60704739B1D6
:10038000124A121D12680243104B1B1D1A6006E030
:100390000E4A121D126882430C4B1B1D1A607047D7
:1003A000042808D14FF0E021096941F004014FF021
:1003B000E022116107E04FF0E021096921F004011A
:1003C0004FF0E022116170470000FA050CED00E0EB
:1003D00000E400E080E100E080FFFF1FDD480068EE
:1003E00040F00100DB49086008464068DA490840EF
:1003F000D849486008460068D8490840D54908608F
:100400000846006820F4802008600846406820F410
:10041000FE0048604FF41F0088607047CD490968AE
:1004200021F48031CB4A11601146096821F4802102
:100430001160B0F5803F03D0B0F5802F0ED106E0FB
:10044000C449096841F48031C24A116007E0C149DA
:10045000096841F4A021BF4A116000E000BF00BF5D
:10046000704710B501460022002300204A11012ADE
:1004700002D1B84C236806E0022A02D1B54C236AA7
:1004800001E0B44C636A01F01F02012494401C4255
:1004900001D0012000E0002010BD38B50020009000
:1004A0000024002500BF3120FFF7DBFF0546009840
:1004B000401C00900098B0F5A06F01D0002DF2D044
:1004C0003120FFF7CEFF08B1012400E000242046D0
:1004D00038BD014600209F4A106820F0F80040EA2D
:1004E000C100106070479E490860704702460020B6
:1004F000984B586820F47C1042EA01031843954B4E
:100500005860704796490866704701460020914A36
:10051000506820F003000843506070478D484068E1
:1005200000F00C007047014600208A4A506820F015
:10053000F00008435060704701460020854A50682B
:1005400020F4E06008435060704701460020814A73
:10055000506820F4605040EAC1005060704729B1F3
:100560007C4A527A02437B4B5A7204E0794A527AAF
:100570008243784B5A7270477A4908607047014647
:100580000020744A506820F440400843506070478F
:100590000021754A11706F4A82F82010012802D09C
:1005A000042808D103E001216F4A117004E00521FD
:1005B0006D4A117000E000BF00BF70476B490860D2
:1005C00070476449096A0143624A1162704767498A
:1005D00044390860704730B5002100220024002310
:1005E0005C4D6D6805F00C0121B1042905D0082986
:1005F00023D105E05E4D056022E05D4D05601FE002
:10060000544D6D6805F47012524D6D6805F48034D8
:10061000022505EB92421CB9564D554305600BE08F
:100620004C4D6D6815F4003F03D0524D55430560A5
:1006300002E04F4D5543056002E04D4D056000BF9F
:1006400000BF444D6D6805F0F00109094A4D6B5C2F
:100650000568DD4045603F4D6D6805F4E061090ABD
:10066000454D6B5C4568DD4085603A4D6D6805F42D
:100670006051C90A404D6B5C4568DD40C560354D31
:100680006D6805F44041890B3C4D6B5CC568B5FB5A
:10069000F3F5056130BD29B12E4A526902432D4B55
:1006A0005A6104E02B4A526982432A4B5A617047CF
:1006B00029B1284A92690243264B9A6104E0254AEF
:1006C00092698243234B9A61704729B1214AD269CA
:1006D0000243204BDA6104E01E4AD26982431D4B7B
:1006E000DA61704729B11B4AD2680243194BDA60BC
:1006F00004E0184AD2688243164BDA60704729B189
:10070000144A12690243134B1A6104E0114A126938
:100710008243104B1A617047144940390860704792
:100720000F49C86470470B49C87170470948406A4F
:1007300040F0807007494862704701460020054A32
:1007400092680A4201D0012000E000207047014970
:1007500088727047001002400000FFF8FFFFF6FEAD
:1007600000004242D800424220100240800442422F
:1007700000127A0000093D0014000020240000202F
:1007800010B50446CA48844208D101210420FFF76D
:10079000A9FF00210420FFF7A5FF46E0C5488442D9
:1007A00008D101210820FFF79DFF00210820FFF755
:1007B00099FF3AE0C048844208D101211020FFF798
:1007C00091FF00211020FFF78DFF2EE0BB488442EF
:1007D00008D101212020FFF785FF00212020FFF70D
:1007E00081FF22E0B648844208D101214020FFF772
:1007F00079FF00214020FFF775FF16E0B1488442E1
:1008000008D101218020FFF76DFF00218020FFF734
:1008100069FF0AE0AC48844207D101218015FFF747
:1008200061FF0021A015FFF75DFF10BD10B501218C
:100830000846FFF757FF00210120FFF753FF10BDC7
:100840002DE9F04102460025002600200023002467
:10085000002791F803C00CF00F0591F803C01CF0BD
:10086000100F03D091F802C04CEA050591F800C0C2
:10087000BCF1000F31D0146800202BE04FF0010CC8
:100880000CFA00F3B1F800C00CEA03069E4220D136
:1008900083004FF00F0C0CFA03F7BC4305FA03FC7E
:1008A0004CEA040491F803C0BCF1280F06D14FF0C4
:1008B000010C0CFA00FCC2F814C00AE091F803C065
:1008C000BCF1480F05D14FF0010C0CFA00FCC2F846
:1008D00010C0401C0828D1D31460B1F800C0BCF18E
:1008E000FF0F34DD546800202EE000F1080C4FF0BB
:1008F000010808FA0CF3B1F800C00CEA03069E42A6
:1009000021D183004FF00F0C0CFA03F7BC4305FA1A
:1009100003FC4CEA040491F803C0BCF1280F05D194
:1009200000F1080C08FA0CF8C2F8148091F803C022
:10093000BCF1480F07D100F1080C4FF0010808FA8C
:100940000CF8C2F81080401C0828CED35460BDE8D3
:10095000F0814FF6FF710180022181700421C17086
:1009600070470246002093680B4201D0012000E04E
:10097000002070470146886880B270470246002018
:10098000D3680B4201D0012000E0002070470146EF
:10099000C86880B2704701617047416170470AB111
:1009A000016100E041617047C16070474FF48032DF
:1009B0000A4382618161826182698269704702466D
:1009C0000020424B18684FF68073184040EA02102E
:1009D00008433E4B186070473D49C8617047F0B509
:1009E0000A46002300240021002500F00046B6F14D
:1009F000004F02D1354EF16901E0344E7168C0F309
:100A0000034583B200F44016B6F5401F08D121F02B
:100A100070612E4E766826F070662C4F7E6012E074
:100A200000F48016B6F5801F06D1032606FA05F4F9
:100A3000A14341F0706106E0460D360103FA06F667
:100A4000B14341F0706122B1460D360103FA06F65A
:100A5000314300F00046B6F1004F02D11B4EF16168
:100A600001E01A4E7160F0BD30B500228B071C0FFB
:100A70000F2303FA04F2154B08338C1053F824307B
:100A80009343124C08348D1044F8253023468C10C3
:100A900053F824308C07240F00FA04F423430B4C42
:100AA00008348D1044F8253030BD0A49086070477D
:100AB00000080140000C01400010014000140140FA
:100AC00000180140001C01400020014000000140CE
:100AD00000002042DC00204210B50446FB4884425E
:100AE00009D101218803FFF7FDFD00214FF480406B
:100AF000FFF7F8FD32E0F648844209D101214804AD
:100B0000FFF7FDFD00214FF40030FFF7F8FD25E071
:100B1000F048844209D101218804FFF7F0FD00214B
:100B20004FF48020FFF7EBFD18E0EB48844209D139
:100B30000121C804FFF7E3FD00214FF40020FFF777
:100B4000DEFD0BE0E548844208D101210805FFF7EE
:100B5000D6FD00214FF48010FFF7D1FD10BD2DE927
:100B6000F04786B005460E460024A24600BFA146C7
:100B70000027B08900B100BF2F462C8A4CF6FF70C9
:100B80000440F08804432C82AC894EF6F3100440F4
:100B9000B08831890843718908430443AC81AC8A29
:100BA0004FF6FF400440B0890443AC8201A8FFF730
:100BB00012FDC648874202D1DDF810A001E0DDF841
:100BC0000CA0A88910F4004F08D00AEBCA0000EB73
:100BD0000A1031684900B0FBF1F807E00AEBCA00DF
:100BE00000EB0A1031688900B0FBF1F86420B8FB13
:100BF000F0F004012009642101FB1089A88910F498
:100C0000004F08D0322000EBC900B0FBF1F000F03B
:100C10000700044308E0322000EB09106421B0FB18
:100C2000F1F000F00F0004432C8106B0BDE8F0871E
:100C30004FF41651016000218180C18001810C2197
:100C4000418100218181704710B502460020108A41
:100C50004FF2FF0318400B884C8823438C882343B2
:100C6000CC8823431843108210BD002101804180AD
:100C70008180C180704721B1828942F40052828113
:100C800004E082894DF6FF731A4082817047F0B507
:100C900003460024002600250020A1F510676A3FC6
:100CA00000D100BF1846C1F3421401F01F0601270E
:100CB00007FA06F5012C01D10C3004E0022C01D119
:100CC000103000E014301AB107682F43076002E0CB
:100CD0000768AF430760F0BD1AB1838A0B43838274
:100CE00002E0838A8B4383827047028A4FF6F07357
:100CF0001A400282028A0A430282704782894FF2B6
:100D0000FF731A40828182890A438281704721B130
:100D1000828942F00202828104E082894FF6FD73EB
:100D20001A4082817047028A4FF6DF731A400282AE
:100D3000028A0A430282704721B1028A42F4804249
:100D4000028204E0028A4BF6FF731A400282704767
:100D5000C1F308028280704701468888C0F308000A
:100D60007047818941F0010181817047028BD2B2C5
:100D70000283028B42EA012202837047028B02F453
:100D80007F420283028B0A430283704721B1828A29
:100D900042F02002828204E0828A4FF6DF731A401A
:100DA0008282704721B1828A42F01002828204E07E
:100DB000828A4FF6EF731A408282704721B1828A8D
:100DC00042F00802828204E0828A4FF6F7731A40EA
:100DD0008282704721B1828942F40042828103E01D
:100DE0008289C2F30E028281704721B1828A42F465
:100DF0000062828204E0828A4FF2FF731A4082828C
:100E00007047828A4FF6FB731A408282828A0A43B5
:100E10008282704721B1828A42F00202828204E01B
:100E2000828A4FF6FD731A40828270470246002084
:100E3000B1F5007F00D100BF13880B4201D0012023
:100E400000E00020704701F40072B2F5007F00D18D
:100E500000BFCA430280704770B5024600240023D9
:100E600000250020A1F510666A3E00D100BFC1F345
:100E7000421501F01F03012606FA03F3012D02D1EA
:100E80009689334006E0022D02D1168A334001E0F4
:100E9000968A33400C12012606FA04F41688344070
:100EA00013B10CB1012000E0002070BD10B500228C
:100EB0000023A1F510646A3C00D100BF0A1201248E
:100EC0009440A3B2DC43048010BD00000038014010
:100ED0000044004000480040004C004000500040EA
:100EE00010B50446FA48844208D101214015FFF7A5
:100EF000F9FB00216015FFF7F5FB17E0F548844288
:100F000008D101210015FFF7EDFB00212015FFF7A7
:100F1000E9FB0BE0F048844208D10121C803FFF748
:100F2000E1FB00214FF40040FFF7DCFB10BD30B5C2
:100F30000246002000235068E84C20400D790C68E0
:100F400044EA0524204350609068E54C2040D1E9F4
:100F500002542C434D7944EA450420439060D06A02
:100F600020F470000C7C641EE4B2234340EA03507A
:100F7000D06230BD00210160017141718160C160AA
:100F800001210174704721B1826842F00102826040
:100F900003E0826822F001028260704721B182681A
:100FA00042F48072826003E0826822F48072826080
:100FB000704710B50023CBB21AB144681C4344609B
:100FC00002E044689C43446010BD816841F0080120
:100FD00081607047014600208A6812F0080F01D036
:100FE000012000E000207047816841F00401816029
:100FF0007047014600208A6812F0040F01D00120DA
:1010000000E00020704721B1826842F4A0028260B3
:1010100003E0826822F4A00282607047014600204B
:101020008A6812F4800F01D0012000E00020704790
:1010300010B50A4600210023416821F46041531E87
:1010400041EA4331416010BD21B1426842F400627F
:10105000426003E0426822F4006242607047F0B5EB
:1010600004460D4600200021092D11DDE068A5F1A0
:101070000A0606EB4607072606FA07F18843A5F19C
:101080000A0606EB460603FA06F10843E0600CE0A8
:10109000206905EB4507072606FA07F1884305EBAB
:1010A000450603FA06F108432061072A0FDA606B50
:1010B000561E06EB86071F2606FA07F18843561EC2
:1010C00006EB860605FA06F10843606322E00D2A66
:1010D0000FDA206BD61F06EB86071F2606FA07F1EC
:1010E0008843D61F06EB860605FA06F108432063FF
:1010F00010E0E06AA2F10D0606EB86071F2606FA4D
:1011000007F18843A2F10D0606EB860605FA06F103
:101110000843E062F0BD21B1826842F4801282602F
:1011200003E0826822F48012826070470146C86C36
:1011300080B2704766484C300068704721B1426801
:1011400042F48062426003E0426822F480624260BE
:10115000704721B1426842F48052426003E0426825
:1011600022F48052426070470A460021816821F4CF
:10117000E04111438160704721B1826842F400422E
:10118000826003E0826822F400428260704721B1ED
:10119000826842F40212826003E0826822F4021242
:1011A00082607047014600208A6812F4001F01D057
:1011B000012000E000207047F0B5044615460020ED
:1011C00000220026092911DDE068A1F10A0707EBDA
:1011D000470C072707FA0CF29043A1F10A0707EB27
:1011E000470703FA07F21043E0600CE0206901EBC7
:1011F000410C072707FA0CF2904301EB410703FA71
:1012000007F210432061A06BC0F30156EF1C06F1FA
:10121000010CA7EB0C0707EB870C1F2707FA0CF252
:101220009043EF1C06F1010CA7EB0C0707EB8707B7
:1012300001FA07F21043A063F0BD10B50A46002181
:101240000023816B21F44011531E41EA0351816355
:1012500010BD08B5002300930090009B0B44009341
:10126000009B1A6008BD08B502460020009000925D
:1012700001F12800009B184400900098006880B29B
:1012800008BD0A4600214168164B194011434160D0
:1012900070474162826270470A460021416821F02E
:1012A0001F0111434160704740B109490831096885
:1012B00041F40001064A0832116007E00449083190
:1012C000096821F40001024A0832116070470000E9
:1012D0000024014000280140003C0140FFFEF0FFD7
:1012E000FDF7F1FFFFFD3FFF0246002013680B42B0
:1012F00001D0012000E000207047CA43026070471F
:1013000070B502460020002300240B125568CEB2AF
:1013100005EA060415681D4202D00CB1012000E068
:10132000002070BD00220A12D34303607047000002
:1013300010B50446FE48844208D10121C014FFF7CD
:10134000D1F90021E014FFF7CDF9C4E0B4F1804FEA
:1013500008D101210846FFF7D2F900210120FFF74B
:10136000CEF9B8E0F348844208D101210220FFF70A
:10137000C6F900210220FFF7C2F9ACE0EE48844232
:1013800008D101210420FFF7BAF900210420FFF75A
:10139000B6F9A0E0E948844208D101210820FFF70E
:1013A000AEF900210820FFF7AAF994E0E44884424E
:1013B00008D101211020FFF7A2F900211020FFF72A
:1013C0009EF988E0DF48844208D101212020FFF700
:1013D00096F900212020FFF792F97CE0DA48844258
:1013E00008D101214014FFF77DF900216014FFF7B7
:1013F00079F970E0D548844209D10121C804FFF78A
:1014000071F900214FF40020FFF76CF963E0D04838
:10141000844209D101210805FFF764F900214FF446
:101420008010FFF75FF956E0CA48844209D10121D4
:101430004805FFF757F900214FF40010FFF752F964
:1014400049E0C548844208D101214020FFF757F9FF
:1014500000214020FFF753F93DE0C048844208D105
:1014600001218020FFF74BF900218020FFF747F989
:1014700031E0BB48844208D101218015FFF73FF9D4
:101480000021A015FFF73BF925E0B648844209D1B9
:1014900001210804FFF726F900214FF48030FFF7FF
:1014A00021F918E0B048844209D101214804FFF72E
:1014B00019F900214FF40030FFF714F90BE0AB48A5
:1014C000844208D101218804FFF70CF900214FF470
:1014D0008020FFF707F910BD00220288944B984244
:1014E0000ED0994B98420BD0B0F1804F08D0914B61
:1014F000984205D0904B984202D0904B984204D12C
:101500004FF68F731A404B881A438D4B984207D081
:101510008C4B984204D04FF6FF431A40CB881A43B5
:1015200002808B8883850B880385814B98420BD082
:10153000854B984208D08B4B984205D08A4B9842F5
:1015400002D08A4B984201D10B7A03860123838211
:10155000704770B5002400220023058C4FF6FE76FC
:1015600035400584028C8388048B4FF68F752C40A0
:10157000B51E2C400D882C43751E2A400D892A4328
:101580004D882A436A4DA8420BD06F4DA84208D01F
:10159000744DA84205D0744DA84202D0734DA842A4
:1015A00013D14FF6F7752A404D892A434FF6FB7544
:1015B0002A408D882A434FF6FF652B404FF6FF5592
:1015C0002B408D892B43CD892B4383800483CD8889
:1015D0008586028470BD70B5002400220023058C2E
:1015E0004FF6EF7635400584028C8388048B48F6ED
:1015F000FF752C404FF6FF452C400D884FF6FF76C7
:1016000006EA05252C434FF6DF752A400D8906EAC8
:1016100005152A434D8806EA05152A43444DA8427C
:1016200002D0494DA8421DD14FF67F752A404D8901
:101630004FF6FF7606EA05152A434FF6BF752A4096
:101640008D8806EA05152A434FF6FF352B404FF2E9
:10165000FF752B408D8906EA85052B43CD8906EA67
:1016600085052B4383800483CD880587028470BD64
:1016700070B5002400220023058C4FF6FF6635402C
:101680000584028C8388848B4FF68F752C404FF62F
:10169000FC752C400D882C434FF6FF552A400D89D0
:1016A0004FF6FF7606EA05252A434D8806EA05250A
:1016B0002A431F4DA84202D0234DA8421DD14FF20C
:1016C000FF752A404D894FF6FF7606EA05252A4325
:1016D0004FF6FF352A408D8806EA05252A434EF647
:1016E000FF752B404DF6FF752B408D8906EA0515D9
:1016F0002B43CD8906EA05152B4383808483CD884F
:101700008587028470BD70B5002200230024058CFB
:101710004EF6FF7635400584038C8488828B48F62C
:10172000FF752A404FF6FF452A400D8820E0000053
:10173000002C01400004004000080040000C004064
:10174000001000400014004000340140004C0140F3
:10175000005001400054014000180040001C0040AF
:10176000002000400040014000440140004801408A
:101770004FF6FF7606EA05252A434DF6FF752B4006
:101780000D8906EA05352B434D8806EA05352B43BE
:10179000FA4DA84202D0FA4DA84208D14BF6FF7587
:1017A0002C408D894FF6FF7606EA85152C43848000
:1017B0008283CD88A0F84050038470BD828B4FF2A5
:1017C000FF331A408283828B4FF6FF7303EA0123B3
:1017D0001A4382837047F0B50C461546002200215B
:1017E0000026078C4EF6FF7C07EA0C070784828BE5
:1017F000018C4FF6FF7707EA043640F6FF473A4080
:101800004FF6FF7707EA05273A434FF6FF7707EAD7
:1018100003373A43D94FB8420ED0D94FB8420BD014
:10182000B0F1804F08D0D74FB84205D0D64FB8425C
:1018300002D0D64FB84206D14DF6FF77394046F474
:101840008057394305E047F6FF57394044F4805745
:10185000394382830184F0BD828B4FF6F3731A40C3
:101860008283828B0A4382837047F0B50C4615460B
:10187000002200210026078C4FF6FF6C07EA0C07B8
:101880000784828B018C4FF6FF7707EA04264FF618
:101890000C773A404FF6FF7707EA03172F433A4396
:1018A000B64FB8420ED0B64FB8420BD0B0F1804F11
:1018B00008D0B44FB84205D0B34FB84202D0B34FAE
:1018C000B84206D14FF6FF57394046F48077394386
:1018D00005E04FF2FF57394044F480773943828363
:1018E0000184F0BD028B4FF2FF331A400283028B5A
:1018F0004FF6FF7303EA01231A4302837047F0B5E2
:101900000C461546002200210026078C4FF6EF7C7E
:1019100007EA0C070784028B018C4FF6FF7707EA72
:10192000041640F6FF473A404FF6FF7707EA0337C1
:101930003A434FF6FF7707EA05273A438F4FB842FD
:101940000ED08F4FB8420BD0B0F1804F08D08D4FE2
:10195000B84205D08C4FB84202D08C4FB84206D165
:101960004FF6DF77394046F01007394305E04FF670
:101970005F77394044F01007394302830184F0BD9A
:10198000028B4FF6F3731A400283028B0A430283E1
:101990007047F0B50C46154600220021068C4FF624
:1019A000FE773E400684028B018C4FF60C76324067
:1019B0007E1C06EA03162E433243704EB0420ED010
:1019C0006F4EB0420BD0B0F1804F08D06D4EB04298
:1019D00005D06D4EB04202D06C4EB04206D14FF6EB
:1019E000FD76314044F00106314305E04FF6F576CF
:1019F000314044F00106314302830184F0BD70B5EB
:101A000005460C465D4885420ED05D4885420BD0A8
:101A1000B5F1804F08D05B48854205D05A488542D1
:101A200002D05A48854200D100E000BF208850B95A
:101A30002389A28861882846FFF7ABFFE188284602
:101A4000FFF79EFF25E0208804280AD12389A28879
:101A500061882846FFF753FFE1882846FFF742FFD9
:101A600017E0208808280AD12389A288618828469F
:101A7000FFF7FBFEE1882846FFF7EEFE09E0238929
:101A8000A28861882846FFF7A6FEE1882846FFF76E
:101A900095FE70BD2DE9F04105460C460026012754
:101AA000608808B9022600E00026A088012801D13C
:101AB000022700E001272088A0B92389A288618835
:101AC0002846FFF766FFE1882846FFF759FF23897C
:101AD0003A4631462846FFF712FFE1882846FFF7CD
:101AE00001FF13E02389A28861882846FFF707FFDA
:101AF000E1882846FFF7F6FE23893A463146284614
:101B0000FFF747FFE1882846FFF73AFFBDE8F0817D
:101B10000A884B881A438B881A43CB881A430B894F
:101B20001A434B891A438B891A43A0F84420704703
:101B30004FF6FF71818000210180C18041800172D8
:101B400070470021018041808180C18001814181F5
:101B50008181C18170470021018041800121818004
:101B60000021C18001817047002101804180818076
:101B7000C18001814181818170470000002C0140BA
:101B8000003401400004004000080040000C004008
:101B900021B1028842F00102028004E002884FF67F
:101BA000FE731A400280704731B1B0F8442042F40D
:101BB0000042A0F8442005E0B0F84420C2F30E0231
:101BC000A0F8442070471AB183890B43838102E057
:101BD00083898B43838170478182704741EA020386
:101BE000A0F8483070471AB183890B43838102E023
:101BF00083898B438381704701894FF6F8721140C6
:101C0000018170470A46002101894FF68F73194000
:101C100011430181704730B504460D4629462046E0
:101C2000FFF7F0FF208940F00700208130BD2DE94B
:101C3000F04104460D4616461F46602D06D13B4630
:101C4000012231462046FFF75AFE05E03B460122BD
:101C500031462046FFF79DFE29462046FFF7D2FF7A
:101C6000208940F007002081BDE8F08130B50C46A6
:101C700000210189C9B24FF6FF7505EA0325154316
:101C800025432943018130BD2DE9F04105460E462B
:101C900017469846002443463A4631462846FFF701
:101CA000E5FF2C894FF6F870044044F007044FF626
:101CB0008F70044044F070042C81BDE8F081F0B5D1
:101CC00004460D4616461F463B46324629462046E8
:101CD000FFF7CCFF208940F480402081F0BD0185D2
:101CE000828270470A46002101884FF68F7319409F
:101CF000114301807047F0B50C4615461E46002181
:101D0000002200230189028B038C4FF6F8773940BB
:101D100021434FF6FC473A4040F201173A434FF651
:101D2000DD773B404FF6FF7707EA06172F433B432B
:101D3000018102830384F0BD0A460021018B4FF626
:101D40008F7319401143018370470A460021018BAC
:101D500048F6FF7319404FF6FF7303EA0223194355
:101D6000018370470A460021818B4FF68F7319401B
:101D70001143818370470A460021818B48F6FF7327
:101D800019404FF6FF7303EA02231943818370471A
:101D900021B1028842F08002028004E002884FF6FE
:101DA0007F731A400280704721B1828842F004029A
:101DB000828004E082884FF6FB731A40828070476D
:101DC00021B1828842F00802828004E082884FF6C6
:101DD000F7731A408280704721B1828842F0010275
:101DE000828004E082884FF6FE731A40828070473A
:101DF0000A460021018B4FF6F77319401143018306
:101E000070470A460021018B4FF2FF7319404FF6CD
:101E1000FF7303EA02231943018370470A46002136
:101E2000818B4FF6F77319401143818370470A463F
:101E30000021818B4FF2FF7319404FF6FF7303EAC5
:101E400002231943818370470A460021018B4FF614
:101E5000FB7319401143018370470A460021018B2F
:101E60004FF6FF3319404FF6FF7303EA022319437D
:101E7000018370470A460021818B4FF6FB7319409E
:101E80001143818370470A460021818B4FF6FF334F
:101E900019404FF6FF7303EA022319438183704709
:101EA0000A460021018B4FF67F73194011430183CD
:101EB00070470A460021018BC1F30E014FF6FF73F4
:101EC00003EA02231943018370470A460021818BEC
:101ED0004FF67F7319401143818370470A460021F2
:101EE000818BC1F30E014FF6FF7303EA02231943FE
:101EF000818370470A460021018C4FF6FD7319401B
:101F00001143018470470A460021018C4FF6F77394
:101F100019401143018470470A460021018C4FF695
:101F2000DF7319404FF6FF7303EA0213194301846C
:101F300070470A460021018C4FF67F7319404FF617
:101F4000FF7303EA02131943018470470A46002114
:101F5000018C4FF6FF5319404FF6FF7303EA02233B
:101F60001943018470470A460021018C4FF2FF7328
:101F700019404FF6FF7303EA0223194301847047A7
:101F80000A460021018C4DF6FF7319404FF6FF738E
:101F900003EA023319430184704730B5002301245A
:101FA0008C40A3B2048C9C430484048C02FA01F597
:101FB000ADB22C43048430BD30B5002304248C40E2
:101FC000A3B2048C9C430484048C02FA01F5ADB2E4
:101FD0002C43048430BD70B503460020002418460D
:101FE000183001258D40ACB21D8CA5431D8409B16C
:101FF000082909D100EB6100056825F0700505602E
:102000000568154305600EE00D1FC5F34E05284415
:10201000056825F4E045056005684FF6FF7606EA99
:1020200002263543056070BD21B1028842F00202EC
:10203000028004E002884FF6FD731A400280704768
:1020400021B1028842F00402028004E002884FF6C7
:10205000FB731A400280704721B1828842F08002EF
:10206000828004E082884FF67F731A408280704736
:1020700002884FF6F7731A40028002880A430280F2
:10208000704782884FF68F731A40828082880A4395
:102090008280704702894FF6F8731A4002810289E4
:1020A0000A430281704702894FF67F731A4002810A
:1020B00002890A4302817047818470478185704795
:1020C000818670470187704781877047A0F840106C
:1020D000704702884FF6FF431A40028002880A4385
:1020E000028070470146888E70470146088F70470E
:1020F0000146888F70470146B1F84000704701469D
:10210000888C70470146088D704702460020138A6C
:102110000B4201D0012000E000207047CA43028238
:10212000704730B50246002000230024158A05EAD6
:102130000103958905EA010413B10CB1012000E007
:10214000002030BDCA43028270470021002200BF38
:1021500007E0002201E0531C9AB23C2AFBDB4B1C37
:1021600099B28142F5D370470021002200BF08E0F8
:10217000002201E0531C9AB2B2F5826FFADB4B1CCD
:1021800099B28142F4DB704708B501210420FEF7C3
:102190008FFA4FF44070ADF8000004208DF8030072
:1021A00069468448FEF74CFB01211020FEF780FAB7
:1021B000C020ADF8000004208DF8030069467E4879
:1021C000FEF73EFB08BD00B587B00121C802FEF74F
:1021D0006FFA01214803FEF76BFA7848FFF7A8F879
:1021E00004A8FFF7A5FC0020ADF810004FF6FF7023
:1021F000ADF814000020ADF81600ADF8120004A9E7
:102200006E48FFF769F90A231A4603216B48FFF766
:1022100072FD01A8FFF79FFC0620ADF80C0001A994
:102220006648FFF7ECFB0020644924310880012157
:102230006248FFF7ADFC6248FFF77AF804A8FFF7A1
:1022400077FC0020ADF810004FF6FF70ADF81400D9
:102250000020ADF81600ADF8120004A95848FFF7A9
:102260003BF900231A4603215548FFF744FD01A816
:10227000FFF771FC0620ADF80C0001A95048FFF7EC
:10228000BEFB00204E492431088001214C48FFF755
:102290007FFC07B000BD10B5FFF776FFFFF793FF97
:1022A00010BD10B54648FFF72AFF464908600020D8
:1022B0004349243108804248008810F0100F05D0AF
:1022C00040480068A0F580303E4908603D480068FD
:1022D00040423C4908603948FFF711FF3A4908601D
:1022E00000203649243108803448008810F0100F4F
:1022F00005D035480068A0F5803033490860324881
:1023000000684042304908602E480068B0F5C87F38
:1023100004DC2C48006810F5C87F03DA2B480068FD
:102320002849086028480068B0F5C87F04DC2648C2
:10233000006810F5C87F03DA254800682249086064
:1023400020480068214908601F480068204908604B
:102350001C4800681F4948601B4800681E494860C7
:1023600018480068012804DC16480068B0F1FF3FF7
:1023700006DA1A48006813490968084417490860D2
:1023800011480068012804DC0F480068B0F1FF3FE5
:1023900006DA134800680C490968084410490860C7
:1023A0000F4800680D490968084440100D4908604D
:1023B00010BD000000080140001001400034014041
:1023C000002C0140280000202C00002030000020BC
:1023D00034000020B8000020DC0000203C00002079
:1023E000380000204000002008B501210820FEF739
:1023F0005FF946F22230ADF8000028208DF8030086
:1024000003208DF8020069463148FEF719FA0121D0
:102410001020FEF74DF94FF22F00ADF800002820F4
:102420008DF8030003208DF8020069462948FEF765
:1024300007FA01212020FEF73BF90420ADF8000047
:1024400028208DF8030003208DF8020069462248F9
:10245000FEF7F6F908BD70B504460025012C09D039
:10246000092C07D00D2C05D00E2C03D00F2C01D039
:10247000102C07D1194830F814101548FEF771FADE
:10248000054622E0022C0FD0032C0DD0042C0BD0DB
:10249000052C09D0062C07D0072C05D0082C03D01A
:1024A0000A2C01D00B2C07D10C4830F81410094825
:1024B000FEF757FA054608E00C2C06D1074830F81D
:1024C00014100548FEF74DFA0546284670BD000079
:1024D000000C0140001001400014014044000020A5
:1024E00008B501211020FEF7E3F84FF44070ADF875
:1024F000000010208DF8030003208DF802006946CB
:102500003A48FEF79DF901210420FEF7D1F84FF477
:10251000C050ADF8000010208DF8030003208DF8A6
:10252000020069463248FEF78BF901210820FEF7C8
:10253000BFF849F20100ADF8000010208DF803004B
:1025400003208DF8020069462A48FEF779F908BD94
:1025500010B50446012C01D0052C06D1264830F8D0
:1025600014102248FEF717FA18E0022C03D0032CAF
:1025700001D0042C06D1204830F814101C48FEF776
:102580000AFA0BE0062C03D0072C01D0082C05D149
:10259000194830F814101748FEF7FDF910BD10B5B2
:1025A0000446012C01D0052C06D1134830F8141034
:1025B0000E48FEF7F2F918E0022C03D0032C01D0EC
:1025C000042C06D10C4830F814100948FEF7E5F940
:1025D0000BE0062C03D0072C01D0082C05D10648AF
:1025E00030F814100348FEF7D8F910BD0010014070
:1025F00000080140000C01406600002008B50121E0
:102600000420FEF755F80520ADF8000018208DF8DD
:10261000030003208DF8020069464D48FEF710F9CB
:1026200001210420FEF744F80A20ADF80000102034
:102630008DF8030003208DF8020069464448FEF738
:10264000FFF808BD00B587B001210846FEF73DF848
:102650004FF08040FEF76CFE0420ADF81000002023
:10266000ADF812004FF4FA60ADF814000020ADF898
:10267000160004A94FF08040FEF72EFF7020ADF841
:1026800000000120ADF802004FF47A70ADF80600AA
:102690000220ADF8080069464007FEF75AFF0821FE
:1026A000C806FFF7A5FB69464FF08040FEF7E0FF44
:1026B0000821C806FFF7B2FB01218807FFF768FB76
:1026C00001218807FFF764FA07B000BD10B5044682
:1026D000002C0ADA08211E48FEF75FF9604281B239
:1026E0004FF08040FFF7F0FC0AE008211848FEF7A1
:1026F00052F9C4F5FA6081B24FF08040FFF7E4FC74
:1027000010BD10B50446002C0ADA02211048FEF76D
:1027100044F9604281B24FF08040FFF7D1FC0AE0FB
:1027200002210B48FEF737F9C4F5FA6081B24FF089
:102730008040FFF7C5FC10BD10B5FFF75FFFFFF746
:1027400081FF0020FFF7DDFF0020FFF7BFFF10BD76
:102750000008014008B501210420FDF7A9FFF02081
:10276000ADF8000000208DF8030069463748FEF7F9
:1027700067F801211020FDF79BFF1020ADF8000045
:1027800000208DF8030069463148FEF759F808BD6E
:1027900000B585B001218802FDF78AFF0020009076
:1027A0008DF8040001208DF805004FF460200290A0
:1027B0000020039010208DF8100069462548FEF790
:1027C000B6FB01212348FEF7DEFB2248FEF7FDFBA6
:1027D00000BF2048FEF7FEFB0028FAD11D48FEF797
:1027E00003FC00BF1B48FEF704FC0028FAD10121BE
:1027F0001848FEF708FC05B000BD10B5FFF7AAFFAA
:10280000FFF7C6FF10BD70B5044600250021114832
:10281000FEF7F9FB1048015D01231A460D48FEF74B
:102820001EFC01210B48FEF7EEFB00BF0221094808
:10283000FEF75AFD0028F9D00648FEF777FC05465A
:1028400000210448FEF7DFFB284670BD0008014068
:1028500000100140002801402A37000808B5012176
:102860000420FDF725FFC020ADF8000018208DF8EA
:10287000030003208DF8020069463548FDF7E0FFAC
:1028800008BD00B587B001210420FDF71EFF4FF4FD
:102890002F70ADF810000020ADF812004FF4FA6070
:1028A000ADF814000020ADF816008DF8180004A94A
:1028B0002848FEF711FE7020ADF800000120ADF8A9
:1028C00002000020ADF804004FF47A70ADF8060065
:1028D0000020ADF808004FF48070ADF80C00002027
:1028E000ADF80E0069461B48FEF733FE0821194873
:1028F000FFF77EFA69461748FEF76DFE0821154876
:10290000FFF77FFA01211348FFF742F9012111482F
:10291000FFF74AF907B000BD10B5FFF79FFFFFF7BB
:10292000B0FF64210B48FFF7CBFB64210948FFF798
:10293000C9FB10BD10B5044621460648FFF7C0FB91
:1029400010BD10B5044621460248FFF7BBFB10BD81
:10295000000C01400008004008B501211420FDF7DB
:10296000A7FE4FF40070ADF8000018208DF80300AA
:1029700003208DF8020069465648FDF761FF4FF4C9
:102980008060ADF8000004208DF8030069465148CE
:10299000FDF756FF4FF48060ADF8000018208DF869
:1029A000030003208DF8020069464B48FDF748FFFD
:1029B0004FF40060ADF8000004208DF80300694674
:1029C0004548FDF73DFF08BD00B585B00121C804AD
:1029D000FDF77BFE4FF4165001900020ADF8080083
:1029E000ADF80A00ADF80C00ADF810000C20ADF801
:1029F0000E0001A93948FEF7B2F801213748FEF769
:102A00003AF901218803FDF753FE4FF41650019067
:102A10000020ADF80800ADF80A00ADF80C00ADF8E4
:102A200010000C20ADF80E00012240F225512C4878
:102A3000FEF72DF901A92A48FEF791F8012128484F
:102A4000FEF719F94FF4C060FDF75AFC25208DF808
:102A5000000001208DF801008DF802008DF80300C0
:102A60006846FDF752FC05B000BD10B5FFF774FFD6
:102A7000FFF7AAFF10BD10B5044621461748FEF720
:102A800067F900BF80211548FEF7D0F90028F9D07A
:102A900010BD10B5044621461148FEF759F900BF94
:102AA00080210F48FEF7C2F90028F9D010BD10B5FB
:102AB00040F225510A48FEF7CFF948B10848FEF721
:102AC0004BF90849087040F225510548FEF7EEF928
:102AD00010BD00000008014000100140004C004003
:102AE000003801407800002010B501210820FDF7D2
:102AF000DFFD10BD08B501210820FDF7D9FD4FF419
:102B00008060ADF8000010208DF8030002208DF8E1
:102B100002006946FE48FDF793FE08BD38B504463D
:102B200001210820FDF7C4FD4FF40060ADF800005E
:102B30001CB110208DF8030002E004208DF8030082
:102B400002208DF802006946F148FDF779FE38BD94
:102B500010B5FFF7CFFF0120FFF7E0FF4FF48061D2
:102B6000EB48FDF71AFF4FF40061E948FDF715FF48
:102B70000120FFF7F9FA4FF48061E548FDF70BFFFC
:102B80004FF40061E248FDF706FF10BD10B54FF4A9
:102B90000061DF48FDF7FFFE4FF48061DC48FDF780
:102BA000FAFE0A20FFF7D1FA4FF40061D848FDF78A
:102BB000F4FE0A20FFF7C9FA4FF48061D448FDF70C
:102BC000ECFE0A20FFF7C1FA10BD10B54FF400610A
:102BD000CF48FDF7E2FE0120FFF7B7FA4FF480611E
:102BE000CB48FDF7D8FE0120FFF7AFFA4FF40061A4
:102BF000C748FDF7D0FE0A20FFF7A7FA10BD70B551
:102C000005464FF48061C248FDF7C7FE002421E06D
:102C100005FA04F010F0800F05D04FF40061BC48B5
:102C2000FDF7B9FE04E04FF40061B948FDF7B5FEC9
:102C30000120FFF78AFA4FF48061B548FDF7ABFE3B
:102C40000120FFF782FA4FF48061B148FDF7A5FE3D
:102C5000601CC4B2082CDBDB0520FFF776FA4FF4CA
:102C60000061AB48FDF797FE0520FFF76EFA4FF4C1
:102C70008061A748FDF78FFE0020FFF74FFF05207A
:102C8000FFF763FA4FF40061A148FDF76AFE18B13F
:102C90000020A049087002E001209E490870012030
:102CA000FFF73CFF4FF480619948FDF776FE70BD59
:102CB00070B500244FF400619548FDF76CFE0520C7
:102CC000FFF743FA0020FFF729FF0520FFF73DFA41
:102CD00000251EE00520FFF738FA4FF480618C488C
:102CE000FDF75BFE0520FFF730FA4FF4806188485E
:102CF000FDF751FE6006040E4FF400618448FDF7B5
:102D000030FE08B1601CC4B20520FFF71EFA681C33
:102D1000C5B2082DDEDB4FF480617D48FDF73DFE36
:102D20000520FFF712FA0120FFF7F8FE204670BDDC
:102D300010B54FF480617648FDF72FFE4FF4006127
:102D40007348FDF728FE0520FFF7FFF90020FFF785
:102D5000E5FE0520FFF7F9F94FF480616C48FDF7B7
:102D60001AFE0520FFF7F1F94FF400616848FDF7FE
:102D7000F8FD04460520FFF7E8F90120FFF7CEFE35
:102D8000204610BD10B504462CB14FF400616048D8
:102D9000FDF701FE04E04FF400615D48FDF7FDFD25
:102DA0000520FFF7D2F94FF480615948FDF7F3FD94
:102DB0000520FFF7CAF94FF480615548FDF7EDFD96
:102DC0000520FFF7C2F910BD70B506460C46154642
:102DD000FFF7DCFE3046FFF712FF2046FFF70FFF3C
:102DE0002846FFF70CFFFFF7F0FE70BD2DE9F0411C
:102DF00007460C4615461E46FFF7C8FE3846FFF745
:102E0000FEFE2046FFF7FBFE2846FFF7F8FE3046A1
:102E1000FFF7F5FEFFF7D9FE0120FFF7A5F9BDE8A2
:102E2000F08170B504460D46FFF7B0FE2046FFF76F
:102E3000E6FE2846FFF7E3FEFFF7A8FE611CC8B2D6
:102E4000FFF7DDFEFFF734FF06460120FFF79AFF8C
:102E5000FFF7BBFE304670BD01461D2930D2DFE8CA
:102E600001F02F111315232F2F2F2F17191B252F8B
:102E70002F2F2F1D1F21272F2F2F2F2B0F2D2900F5
:102E800000201FE001201DE002201BE0032019E0CC
:102E9000042017E0052015E0062013E0072011E0CC
:102EA00008200FE009200DE00A200BE00B2009E0CC
:102EB0000C2007E00D2005E00E2003E00F2001E0CC
:102EC000102000BF00BF704710B50446FFF75EFE3C
:102ED0007020FFF794FE0720FFF791FE2046FFF7D2
:102EE0008EFEFFF772FE10BD70B505460C46FFF76B
:102EF0004DFE7020FFF783FE0720FFF780FE284677
:102F0000FFF77DFE2046FFF77AFEFFF75EFE03E047
:102F1000000C0140790000200120FFF725F970BD69
:102F200010B5FFF733FE7020FFF769FE1020FFF7A2
:102F300066FE002409E00020FFF761FE00BF58484C
:102F400000780028FBD0601CC4B2082CF3DBFFF72C
:102F50003CFE10BD70B504460D461646072C00DD3C
:102F60000724FFF713FE7020FFF749FE0720FFF745
:102F700046FE44F06000FFF742FE45EAC611C8B2C3
:102F8000FFF73DFEFFF721FE0120FFF7EDF870BDD2
:102F900010B50024FFF7FAFD7020FFF730FE012086
:102FA000FFF72DFEFFF7F2FD7120FFF728FEFFF778
:102FB0007FFE04460120FFF7E5FEFFF706FE2046F0
:102FC000FFF74AFF0446204610BD38B5044664208A
:102FD00094FBF0F0C0B28DF80000642094FBF0F197
:102FE00000FB11400A2190FBF1F0C0B28DF8010006
:102FF0000A2094FBF0F100FB1140C0B28DF80200F2
:103000009DF8001000220120FFF7A4FF9DF8011099
:1030100000220220FFF79EFF9DF8021000220320ED
:10302000FFF798FF38BD7FB500BF002400BF19E04F
:1030300000BFFFF7ADFF1028FBD0FFF7A9FF4DF849
:1030400024005DF82400092805DA1DF82410002268
:103050002046FFF77FFF00BFFFF79AFF1028FBD144
:10306000601CC4B2042CE3DB4FF47A71009848432F
:10307000019901EBC10202EB011100EB8100029901
:1030800001EB810100EB4100039945184FF47A7080
:10309000FFF76AF8FFF744FF284604B070BD000050
:1030A000790000200020FE490870FE490870FE49A2
:1030B0000870FE490870FE4908604FF4C070FD4971
:1030C00008604000FC4908604FF48060FB490860DC
:1030D0000020FB4908600120FA490860CAE1052088
:1030E000FFF7B9F9EE4908700320FFF7B4F9ED498D
:1030F00008700120FFF7AFF9EB4908700F20FFF7C8
:10310000AAF9EA490870E648007801282BD1E54879
:103110000078012827D1E448007820BB08460078D1
:1031200008BB002400250020E5490860E14800684C
:103130004042E549086000BF11E000250BE0E2488D
:103140000088803000B2FFF7DCFADF48008800B268
:10315000FFF7BCFA6D1CB5F5826FF0DB641CB4F5AB
:10316000FA6FEADB86E1D048007801282AD1CF48FF
:103170000078012826D1CA48007818BBC9480078D1
:1031800000BB002400250020CD490860C948006824
:10319000CD49086000BF11E000250BE0CA48008857
:1031A000803000B2FFF7ADFAC748008800B2FFF7E1
:1031B0008DFA6D1CB5F5826FF0DB641CB4F5FA6F07
:1031C000EADB57E1B648007801281FD1B6480078FD
:1031D00001281BD1B3480078C0B9B4480078A8B919
:1031E0000020B7490860B3480068B8490860B04893
:1031F0000068B7490860B548008800B2FFF781FA57
:10320000B348008800B2FFF761FA33E1A5480078BF
:1032100001281FD1A548007801281BD1A0480078BB
:10322000C0B9A1480078A8B90020A5490860A04805
:103230000068A64908609F480068A5490860A3483F
:10324000008800B2FFF75DFAA148008800B2FFF7DE
:103250003DFA0FE19448007801281ED1904800788B
:10326000D8B992480078C0B98E480078A8B9002033
:10327000934908608F480068944908608C4800684A
:10328000934908609148008800B2FFF73AFA9048E5
:10329000008800B2FFF71AFAECE0844800780128B1
:1032A0001ED180480078D8B97F480078C0B97C48E2
:1032B0000078A8B90020824908607D4800688349E9
:1032C00008607C480068824908608048008800B235
:1032D000FFF717FA7E48008800B2FFF7F7F9C9E058
:1032E0007048007801281FD16D480078E0B96F4818
:1032F0000078C8B96C480078B0B9002070490860FF
:103300006C4800684042714908606A48006870492A
:1033100008606E48008800B2FFF7F3F96C48008837
:1033200000B2FFF7D3F9A5E05D48007801281FD16E
:103330005C480078E0B95C480078C8B95B48007820
:10334000B0B900205E4908605A4800685F490860CB
:103350005848006840425E4908605C48008800B2F6
:10336000FFF7CFF95A48008800B2FFF7AFF981E0C4
:103370004B48007800286CD14A480078002868D172
:1033800049480078002864D148480078002860D176
:103390004B48006808BB00240025464800684A499D
:1033A000086000BF12E000250BE04748008800B22B
:1033B000FFF7A7F94448008800B2FFF787F9681CB7
:1033C00085B2B5F5826FF0DB601C84B2B4F5FA7F8C
:1033D000E9DB01203A4908604CE0394800680128DF
:1033E00048D13848006870B93348006836490860E9
:1033F0000846008800B2FFF784F93348008800B21D
:10340000FFF764F936E02F480068012832D1002424
:1034100000252A4800682C49086000BF12E00025FA
:103420000BE02948008800B2FFF76BF926480088B6
:1034300000B2FFF74BF9681C85B2B5F5826FF0DB7F
:10344000601C84B2B4F5FA6FE9DB00201D49086006
:1034500010E000201A490860154800681A49086001
:103460000846008800B2FFF74CF91748008800B200
:10347000FFF72CF933E6FFF715FEFCF7C1FEFEF768
:10348000B3FFFFF72DF8FFF7B8F9FFF761FBFFF780
:1034900053F9FFF741FAFEF7FEFEFFF7ECFF0000DD
:1034A000AC000020AD000020AE000020AF000020E6
:1034B0009C000020A0000020A4000020A800002004
:1034C000B0000020B400002084000020880000200C
:1034D0008C00002000240AE0002406E0611CC8B231
:1034E000FEF7B9FF68490855641C102CF6DBF3E7BA
:1034F00037E00120FFF72CF80220FFF729F803201E
:10350000FFF726F80420FFF723F80520FFF747F818
:103510000620FFF744F80720FFF741F80820FFF7DF
:103520003EF84FF47A70FEF71FFE0120FFF737F8E0
:103530000220FFF734F80320FFF731F80420FFF7EB
:103540002EF80520FFF704F80620FFF701F8072002
:10355000FEF7FEFF0820FEF7FBFF4FF47A70FEF740
:1035600003FEC6E700240DE0012409E0E0B2FFF706
:103570004AF9464921F814000320FEF7F5FD641CC2
:10358000062CF3DBF0E709E0F020FFF774FAF120F6
:10359000FFF77FFA4FF4FA70FEF7E6FDF4E700223A
:1035A00011461046FFF7D6FC4FF4FA60FEF7DCFD3B
:1035B000002201210846FFF7CDFC4FF4FA60FEF728
:1035C000D3FD002202210846FFF7C4FC4FF4FA6045
:1035D000FEF7CAFD002203210846FFF7BBFC4FF4AB
:1035E000FA60FEF7C1FD002204210846FFF7B2FC95
:1035F0004FF4FA60FEF7B8FD002205210846FFF7F8
:10360000A9FC4FF4FA60FEF7AFFD00220621084640
:10361000FFF7A0FC4FF4FA60FEF7A6FD0022072199
:103620000846FFF797FC4FF4FA60FEF79DFD41F264
:103630008830FEF799FDFFF773FCFFF7F4FC14499F
:10364000086000BFFEE709E01248008800B2FFF7FB
:1036500058F81048008800B2FFF738F8F4E709E09E
:103660000D49098888B2FFF765F90B49098888B2C6
:10367000FFF767F9F4E705E0FEF713FE4FF47A7001
:10368000FEF772FDF8E7704748010020580100205E
:10369000800000208400002090000020704700BFC0
:1036A000FEE700BFFEE700BFFEE700BFFEE7704792
:1036B00070477047704710B501218807FEF731FD4C
:1036C00018B101218807FEF73DFD10BD10B501219D
:1036D0000448FEF726FD18B101210248FEF732FD2D
:1036E00010BD000000080040064C074D06E0E068F1
:1036F00040F0010394E8070098471034AC42F6D339
:10370000FCF7F8FC303700085037000802E008C822
:10371000121F08C1002AFAD170477047002001E04B
:1037200001C1121F002AFBD1704700040506070ED5
:103730005037000800000020B80000000C370008D7
:1037400008380008B8000020B00400001C3700084A
:1037500000A24A040000000000000000010203046F
:103760000607080900000000010203040102030427
:103770000607080902040608000000000000000017
:103780000000000000000000000000000000000039
:10379000000000000000000200200040008008003F
:1037A00004000200010002002000001004000001DB
:1037B000200000400020000000020000001000086F
:1037C0000001008000100100000000000000000067
:1037D00000000000000000000000000000000000E9
:1037E00064000000640000006400000000000000AD
:1037F00000020000000400000006000001010101B9
:083800000000000001000000BF
:0400000508000101ED
:00000001FF
