:020000040800F2
:1000000058050020010100087D3500087F350008F3
:1000100083350008873500088B3500080000000094
:100020000000000000000000000000008F35000804
:100030009135000800000000933500089535000850
:100040001B0100081B0100081B0100081B01000820
:100050001B0100081B0100081B0100081B01000810
:100060001B0100081B0100081B0100081B01000800
:100070001B0100081B0100081B0100081B010008F0
:100080001B0100081B0100081B0100081B010008E0
:100090001B0100081B0100081B0100081B010008D0
:1000A0001B0100081B0100081B0100081B010008C0
:1000B000973500081B010008AD3500081B0100083A
:1000C0001B0100081B0100081B0100081B010008A0
:1000D0001B010008872A00081B0100081B010008FB
:1000E0001B0100081B0100081B010008DFF80CD0F1
:1000F00003F06AFA00480047EF3000085805002076
:100100000648804706480047FEE7FEE7FEE7FEE7B1
:10011000FEE7FEE7FEE7FEE7FEE7FEE70302000874
:10012000ED0000080CB50020019000906C480068BC
:1001300040F480306A49086000BF6948006800F4F4
:10014000003000900198401C0190009818B9019867
:10015000B0F5A06FF1D16248006800F4003010B132
:100160000120009001E0002000900098012843D178
:100170005C48006840F010005A4908600846006872
:1001800020F0030008600846006840F002000860A4
:1001900053484068524948600846406848600846ED
:1001A000406840F4806048600846406820F47C1055
:1001B00048600846406840F4E81048600846006817
:1001C00040F08070086000BF4548006800F0007093
:1001D0000028F9D04248406820F0030040494860B8
:1001E0000846406840F00200486000BF3C48406854
:1001F00000F00C000828F9D10CBD10B5FFF792FFF4
:1002000010BD10B53648006840F001003449086060
:10021000084640683449084031494860084600684B
:10022000324908402E4908600846006820F48020C2
:1002300008600846406820F4FE0048604FF41F0044
:100240008860FFF7DAFF4FF000602949086010BDB1
:1002500010B5002100200022214B5B6803F00C0147
:1002600021B1042906D0082928D107E0214B224CCE
:10027000236027E01F4B204C236023E0184B5B6872
:1002800003F47010164B5B6803F48032022303EB17
:10029000904022B9194B4343174C23600DE0104B9B
:1002A0005B6803F4003323B1144B4343124C2360C7
:1002B00003E0104B4343104C236003E00D4B0E4C06
:1002C000236000BF00BF064B5B68C3F303130C4CF5
:1002D000E15C094B1B68CB40074C236010BD00005C
:1002E00000100240002002400000FFF8FFFFF6FE71
:1002F00008ED00E000127A000000002000093D0037
:100300000400002031490143314A1160704770B543
:10031000002100230F22C47804B32D4C246804F478
:10032000E064C4F5E064210AC1F10403CA404478E2
:1003300004FA03F18478144021430901254C06781E
:10034000A155047804F01F050124AC4005786D1117
:10035000AD0005F1E025C5F8004109E0047804F09E
:100360001F050124AC401C4D0678761145F8264047
:1003700070BD1A4A0A400243154B1B1F1A60704792
:1003800039B1134A121D12680243114B1B1D1A602A
:1003900006E00F4A121D126882430D4B1B1D1A60A6
:1003A0007047042808D14FF0E021096941F00401A9
:1003B0004FF0E022116107E04FF0E021096921F0E0
:1003C00004014FF0E0221161704700000000FA05BF
:1003D0000CED00E000E400E080E100E080FFFF1FA2
:1003E000DF48006840F00100DD49086008464068C9
:1003F000DC490840DA49486008460068DA490840A4
:10040000D74908600846006820F480200860084644
:10041000406820F4FE0048604FF41F008860704779
:10042000CF49096821F48031CD4A1160114609682D
:1004300021F480211160B0F5803F03D0B0F5802F0A
:100440000ED106E0C649096841F48031C44A116002
:1004500007E0C349096841F4A021C14A116000E0E6
:1004600000BF00BF704710B50146002200230020E6
:100470004A11012A02D1BA4C236806E0022A02D1AD
:10048000B74C236A01E0B64C636A01F01F020124F5
:1004900094401C400CB1012000E0002010BD38B594
:1004A000002000900024002500BF3120FFF7DBFF73
:1004B00005460098401C00900098B0F5A06F01D050
:1004C000002DF2D03120FFF7CEFF08B1012400E06B
:1004D0000024204638BD01460020A14A106820F0C3
:1004E000F80040EAC10010607047A04908607047FA
:1004F000024600209A4B586820F47C1042EA01031F
:100500001843974B586070479849086670470146F2
:100510000020934A506820F0030008435060704761
:100520008F48406800F00C007047014600208C4A5C
:10053000506820F0F00008435060704701460020EA
:10054000874A506820F4E0600843506070470146D5
:100550000020834A506820F4605040EAC100506097
:10056000704729B17E4A527A02437D4B5A7204E0A9
:100570007B4A527A82437A4B5A7270477B49D83110
:100580000860704701460020754A506820F44040DA
:100590000843506070470021714A20321170704A40
:1005A00082F82010012802D004280AD104E0012199
:1005B0006B4A2032117005E00521694A2032117022
:1005C00000E000BF00BF7047694908607047644998
:1005D000096A0143624A11627047654944390860FB
:1005E000704730B500210022002400235C4D6D6867
:1005F00005F00C0121B1042905D0082923D105E01B
:100600005C4D056022E05B4D05601FE0544D6D6858
:1006100005F47012524D6D6805F48034022505EB27
:1006200092421CB9544D554305600BE04C4D6D682A
:1006300005F400351DB1504D5543056002E04D4DA8
:100640005543056002E04B4D056000BF00BF444DBF
:100650006D6805F0F0010909484D6B5C0568DD40E7
:1006600045603F4D6D6805F4E061090A434D6B5CE0
:100670004568DD4085603A4D6D6805F46051C90AF2
:100680003E4D6B5C4568DD40C560354D6D6805F4D9
:100690004041890B3A4D6B5CC568B5FBF3F50561CC
:1006A00030BD29B12E4A526902432D4B5A6104E0F4
:1006B0002B4A526982432A4B5A61704729B1284A12
:1006C00092690243264B9A6104E0254A926982436B
:1006D000234B9A61704729B1214AD2690243204BCA
:1006E000DA6104E01E4AD26982431D4BDA61704729
:1006F00029B11B4AD2680243194BDA6004E0184A58
:10070000D2688243164BDA60704729B1144A1269E5
:100710000243134B1A6104E0114A12698243104BE1
:100720001A61704712494039086070470F49C86420
:1007300070470B49C87170470948406A40F08070A3
:1007400007494862704701460020054A92680A40FE
:100750000AB1012000E0002070470149887270470B
:10076000001002400000FFF8FFFFF6FE00004242CA
:100770008004424200127A0000093D00140000206B
:100780002400002010B50446CC48844208D1012141
:100790000420FFF7ADFF00210420FFF7A9FF46E08A
:1007A000C748844208D101210820FFF7A1FF00219A
:1007B0000820FFF79DFF3AE0C248844208D101219A
:1007C0001020FFF795FF00211020FFF791FF2EE08A
:1007D000BD48844208D101212020FFF789FF002174
:1007E0002020FFF785FF22E0B848844208D101218C
:1007F0004020FFF77DFF00214020FFF779FF16E042
:10080000B348844208D101218020FFF771FF002105
:100810008020FFF76DFF0AE0AE48844207D1012136
:100820008015FFF765FF0021A015FFF761FF10BDE0
:1008300010B501210846FFF75BFF00210120FFF7FB
:1008400057FF10BD2DE9F04102460025002600208B
:1008500000230024002791F803C00CF00F0591F845
:1008600003C00CF0100CBCF1000F03D091F802C0D3
:100870004CEA050591F800C0BCF1000F31D01468B6
:1008800000202BE04FF0010C0CFA00F3B1F800C08F
:100890000CEA03069E4220D183004FF00F0C0CFAA5
:1008A00003F7BC4305FA03FC4CEA040491F803C0C7
:1008B000BCF1280F06D14FF0010C0CFA00FCC2F875
:1008C00014C00AE091F803C0BCF1480F05D14FF005
:1008D000010C0CFA00FCC2F810C0401C0828D1D34F
:1008E0001460B1F800C0BCF1FF0F34DD5468002083
:1008F0002EE000F1080C4FF0010808FA0CF3B1F8F3
:1009000000C00CEA03069E4221D183004FF00F0C79
:100910000CFA03F7BC4305FA03FC4CEA040491F813
:1009200003C0BCF1280F05D100F1080C08FA0CF83F
:10093000C2F8148091F803C0BCF1480F07D100F150
:10094000080C4FF0010808FA0CF8C2F81080401C9F
:100950000828CED35460BDE8F0814FF6FF710180C6
:10096000022181700421C170704702460020936803
:100970000B400BB1012000E0002070470146886861
:1009800080B2704702460020D3680B400BB10120B3
:1009900000E0002070470146C86880B270470161DE
:1009A0007047416170470AB1016100E041617047E1
:1009B000C16070474FF480320A4382618161826175
:1009C00082698269704702460020434B18684FF6DF
:1009D0008073184040EA021008433F4B186070478C
:1009E0003E49C8617047F0B50A4600230024002143
:1009F000002500F00046B6F1004F02D1364EF169F5
:100A000001E0354E7168C0F3034583B200F440162F
:100A1000B6F5401F08D121F070612F4E766826F0A0
:100A200070662D4F7E6012E000F48016B6F5801FD0
:100A300006D1032606FA05F4A14341F0706106E0F1
:100A4000460D360103FA06F6B14341F0706122B15A
:100A5000460D360103FA06F6314300F00046B6F1C2
:100A6000004F02D11C4EF16101E01B4E7160F0BDE0
:100A700030B500228B071C0F0F2303FA04F2164B2C
:100A800008338C1053F824309343134C08348D10E2
:100A900044F8253023468C1053F824308C07240F5B
:100AA00000FA04F423430C4C08348D1044F825302C
:100AB00030BD0A49DC310860704700000008014081
:100AC000000C0140001001400014014000180140DA
:100AD000001C0140002001400000014000002042B5
:100AE00010B50446FB48844209D101218803FFF771
:100AF000FFFD00214FF48040FFF7FAFD32E0F64899
:100B0000844209D101214804FFF7FFFD00214FF481
:100B10000030FFF7FAFD25E0F048844209D10121B9
:100B20008804FFF7F2FD00214FF48020FFF7EDFD70
:100B300018E0EB48844209D10121C804FFF7E5FD24
:100B400000214FF40020FFF7E0FD0BE0E548844270
:100B500008D101210805FFF7D8FD00214FF48010CE
:100B6000FFF7D3FD10BD2DE9F04786B005460E46D0
:100B70000024A24600BFA1460027B08900B100BFF3
:100B80002F462C8A4CF6FF700440F08804432C82D8
:100B9000AC894EF6F3100440B0883189084371895E
:100BA00008430443AC81AC8A4FF6FF400440B0894F
:100BB0000443AC8201A8FFF714FDC648874202D166
:100BC000DDF810A001E0DDF80CA0A88900F40040D9
:100BD00040B10AEBCA0000EB0A1031684900B0FBD3
:100BE000F1F807E00AEBCA0000EB0A10316889004F
:100BF000B0FBF1F86420B8FBF0F004012009642197
:100C000001FB1089A88900F4004040B1322000EBBC
:100C1000C900B0FBF1F000F00700044308E0322007
:100C200000EB09106421B0FBF1F000F00F00044369
:100C30002C8106B0BDE8F0874FF416510160002109
:100C40008180C18001810C21418100218181704717
:100C500010B502460020108A4FF2FF0318400B889F
:100C60004C8823438C882343CC8823431843108229
:100C700010BD0021018041808180C180704721B179
:100C8000828942F40052828104E082894DF6FF732A
:100C90001A4082817047F0B50346002400260025E3
:100CA000002040F66A17B94200D100BF1846C1F3D0
:100CB000421401F01F06012707FA06F5012C01D1A5
:100CC0000C3004E0022C01D1103000E014301AB1D5
:100CD00007682F43076002E00768AF430760F0BD75
:100CE0001AB1838A0B43838202E0838A8B43838217
:100CF0007047028A4FF6F0731A400282028A0A4352
:100D00000282704782894FF2FF731A408281828982
:100D10000A438281704721B1828942F002028281B6
:100D200004E082894FF6FD731A4082817047028A7F
:100D30004FF6DF731A400282028A0A43028270472A
:100D400021B1028A42F48042028204E0028A4BF618
:100D5000FF731A4002827047C1F308028280704715
:100D600001468888C0F308007047818941F001017D
:100D700081817047028BD2B20283028B42EA012248
:100D800002837047028B02F47F420283028B0A4384
:100D90000283704721B1828A42F02002828204E0FD
:100DA000828A4FF6DF731A408282704721B1828AAD
:100DB00042F01002828204E0828A4FF6EF731A40FA
:100DC0008282704721B1828A42F00802828204E066
:100DD000828A4FF6F7731A408282704721B1828966
:100DE00042F40042828103E08289C2F30E028281D2
:100DF000704721B1828A42F40062828204E0828AD2
:100E00004FF2FF731A4082827047828A4FF6FB735B
:100E10001A408282828A0A438282704721B1828A82
:100E200042F00202828204E0828A4FF6FD731A4089
:100E30008282704702460020B1F5007F00D100BFDA
:100E400013880B400BB1012000E00020704701F433
:100E50000072B2F5007F00D100BFCA430280704724
:100E600070B50246002400230025002040F66A16D3
:100E7000B14200D100BFC1F3421501F01F030126AA
:100E800006FA03F3012D02D19689334006E0022DC4
:100E900002D1168A334001E0968A33400C120126B3
:100EA00006FA04F41688344013B10CB1012000E0B6
:100EB000002070BD10B50022002340F66A14A14244
:100EC00000D100BF0A1201249440A3B2DC43048085
:100ED00010BD0000003801400044004000480040C0
:100EE000004C00400050004010B50446FA488442CF
:100EF00008D101214015FFF7FBFB00216015FFF72A
:100F0000F7FB17E0F548844208D101210015FFF7EF
:100F1000EFFB00212015FFF7EBFB0BE0F0488442CC
:100F200008D10121C803FFF7E3FB00214FF4004083
:100F3000FFF7DEFB10BD30B50246002000235068ED
:100F4000E84C20400D790C6844EA052420435060A9
:100F50009068E54C2040D1E902542C434D7944EA95
:100F6000450420439060D06A20F470000C7C641E1D
:100F7000E4B2234340EA0350D06230BD0021016057
:100F8000017141718160C16001210174704721B11B
:100F9000826842F00102826003E0826822F001026E
:100FA0008260704721B1826842F48072826003E0FF
:100FB000826822F480728260704710B50023CBB241
:100FC0001AB144681C43446002E044689C43446096
:100FD00010BD816841F00801816070470146002022
:100FE0008A6802F008020AB1012000E00020704780
:100FF000816841F0040181607047014600208A68E1
:1010000002F004020AB1012000E00020704721B183
:10101000826842F4A002826003E0826822F4A002A7
:1010200082607047014600208A6802F480020AB19B
:10103000012000E00020704710B50A46002100237F
:10104000416821F46041531E41EA4331416010BDC3
:1010500021B1426842F40062426003E0426822F437
:10106000006242607047F0B504460D460020002142
:10107000092D11DDE068A5F10A0606EB46070726F3
:1010800006FA07F18843A5F10A0606EB460603FABD
:1010900006F10843E0600CE0206905EB45070726F0
:1010A00006FA07F1884305EB450603FA06F1084303
:1010B0002061072A0FDA606B561E06EB86071F2693
:1010C00006FA07F18843561E06EB860605FA06F176
:1010D0000843606322E00D2A0FDA206BD61F06EB6F
:1010E00086071F2606FA07F18843D61F06EB8606F9
:1010F00005FA06F10843206310E0E06AA2F10D064C
:1011000006EB86071F2606FA07F18843A2F10D06B3
:1011100006EB860605FA06F10843E062F0BD21B150
:10112000826842F48012826003E0826822F48012B6
:10113000826070470146C86C80B2704766484C3088
:101140000068704721B1426842F48062426003E067
:10115000426822F480624260704721B1426842F4E2
:101160008052426003E0426822F48052426070473D
:101170000A460021816821F4E041114381607047F3
:1011800021B1826842F40042826003E0826822F466
:1011900000428260704721B1826842F4021282608C
:1011A00003E0826822F40212826070470146002048
:1011B0008A6802F400120AB1012000E000207047A2
:1011C000F0B504461546002000220026092911DD4D
:1011D000E068A1F10A0707EB470C072707FA0CF2B2
:1011E0009043A1F10A0707EB470703FA07F2104300
:1011F000E0600CE0206901EB410C072707FA0CF2D4
:10120000904301EB410703FA07F210432061A06B02
:10121000C0F30156EF1C06F1010CA7EB0C0707EB1E
:10122000870C1F2707FA0CF29043EF1C06F1010C04
:10123000A7EB0C0707EB870701FA07F21043A0633F
:10124000F0BD10B50A4600210023816B21F4401146
:10125000531E41EA0351816310BD08B5002300937A
:101260000090009B0B440093009B1A6008BD08B5DA
:10127000024600200090009201F12800009B1844D3
:1012800000900098006880B208BD0A4600214168BD
:10129000164B1940114341607047416282627047AA
:1012A0000A460021416821F01F0111434160704747
:1012B00040B109490831096841F40001064A083281
:1012C000116007E004490831096821F40001024A6D
:1012D00008321160704700000024014000280140DE
:1012E000003C0140FFFEF0FFFDF7F1FFFFFD3FFF77
:1012F0000246002013680B400BB1012000E00020E3
:101300007047CA430260704770B502460020002350
:1013100000240B125568CEB205EA060415681D407C
:1013200015B10CB1012000E0002070BD00220A12AE
:10133000D34303607047000010B50446FE48844262
:1013400008D10121C014FFF7D3F90021E014FFF701
:10135000CFF9C4E0B4F1804F08D101210846FFF76E
:10136000D4F900210120FFF7D0F9B8E0F348844216
:1013700008D101210220FFF7C8F900210220FFF760
:10138000C4F9ACE0EE48844208D101210420FFF703
:10139000BCF900210420FFF7B8F9A0E0E948844235
:1013A00008D101210820FFF7B0F900210820FFF73C
:1013B000ACF994E0E448844208D101211020FFF701
:1013C000A4F900211020FFF7A0F988E0DF4884424B
:1013D00008D101212020FFF798F900212020FFF7F4
:1013E00094F97CE0DA48844208D101214014FFF7E7
:1013F0007FF900216014FFF77BF970E0D548844243
:1014000009D10121C804FFF773F900214FF400202E
:10141000FFF76EF963E0D048844209D10121080545
:10142000FFF766F900214FF48010FFF761F956E0ED
:10143000CA48844209D101214805FFF759F9002122
:101440004FF40010FFF754F949E0C548844208D131
:1014500001214020FFF759F900214020FFF755F9FD
:101460003DE0C048844208D101218020FFF74DF9BA
:1014700000218020FFF749F931E0BB48844208D1C0
:1014800001218015FFF741F90021A015FFF73DF973
:1014900025E0B648844209D101210804FFF728F964
:1014A00000214FF48030FFF723F918E0B048844260
:1014B00009D101214804FFF71BF900214FF4003046
:1014C000FFF716F90BE0AB48844208D101218804EC
:1014D000FFF70EF900214FF48020FFF709F910BD46
:1014E00000220288944B98420ED0994B98420BD020
:1014F000B0F1804F08D0914B984205D0904B984264
:1015000002D0904B984204D14FF68F731A404B880B
:101510001A438D4B984207D08C4B984204D04FF61B
:10152000FF431A40CB881A4302808B8883850B883F
:101530000385814B98420BD0854B984208D08B4B4A
:10154000984205D08A4B984202D08A4B984201D1EA
:101550000B7A038601238382704770B50024002232
:101560000023058C4FF6FE7635400584028C838877
:10157000048B4FF68F752C40B51E2C400D882C43E4
:10158000751E2A400D892A434D882A436A4DA84278
:101590000BD06F4DA84208D0744DA84205D0744DB1
:1015A000A84202D0734DA84213D14FF6F7752A40D6
:1015B0004D892A434FF6FB752A408D882A434FF602
:1015C000FF652B404FF6FF552B408D892B43CD896E
:1015D0002B4383800483CD888586028470BD70B5DB
:1015E000002400220023058C4FF6EF763540058459
:1015F000028C8388048B48F6FF752C404FF6FF451C
:101600002C400D884FF6FF7606EA05252C434FF651
:10161000DF752A400D8906EA05152A434D8806EA3A
:1016200005152A43444DA84202D0494DA8421DD178
:101630004FF67F752A404D894FF6FF7606EA05156D
:101640002A434FF6BF752A408D8806EA05152A43BE
:101650004FF6FF352B404FF2FF752B408D8906EA80
:1016600085052B43CD8906EA85052B4383800483BA
:10167000CD880587028470BD70B500240022002348
:10168000058C4FF6FF6635400584028C8388848B79
:101690004FF68F752C404FF6FC752C400D882C436F
:1016A0004FF6FF552A400D894FF6FF7606EA0525CD
:1016B0002A434D8806EA05252A431F4DA84202D039
:1016C000234DA8421DD14FF2FF752A404D894FF698
:1016D000FF7606EA05252A434FF6FF352A408D8816
:1016E00006EA05252A434EF6FF752B404DF6FF7599
:1016F0002B408D8906EA05152B43CD8906EA051591
:101700002B4383808483CD888587028470BD70B528
:10171000002200230024058C4EF6FF763540058418
:10172000038C8488828B48F6FF752A404FF6FF456C
:101730002A400D8820E00000002C014000040040F9
:1017400000080040000C0040001000400014004061
:1017500000340140004C0140005001400054014061
:1017600000180040001C00400020004000400140E4
:1017700000440140004801404FF6FF7606EA052587
:101780002A434DF6FF752B400D8906EA05352B439C
:101790004D8806EA05352B43FA4DA84202D0FA4D92
:1017A000A84208D14BF6FF752C408D894FF6FF7685
:1017B00006EA85152C4384808283CD88A0F84050AA
:1017C000038470BD828B4FF2FF331A408283828B79
:1017D0004FF6FF7303EA01231A4382837047F0B583
:1017E0000C461546002200210026078C4EF6FF7C91
:1017F00007EA0C070784828B018C4FF6FF7707EA14
:10180000043640F6FF473A404FF6FF7707EA0527D0
:101810003A434FF6FF7707EA03373A43D94FB842C6
:101820000ED0D94FB8420BD0B0F1804F08D0D74F6F
:10183000B84205D0D64FB84202D0D64FB84206D1F2
:101840004DF6FF77394046F48057394305E047F6B7
:10185000FF57394044F48057394382830184F0BDF7
:10186000828B4FF6F3731A408283828B0A43828302
:101870007047F0B50C461546002200210026078C63
:101880004FF6FF6C07EA0C070784828B018C4FF63A
:10189000FF7707EA04264FF60C773A404FF6FF77BA
:1018A00007EA03172F433A43B64FB8420ED0B64F5C
:1018B000B8420BD0B0F1804F08D0B44FB84205D039
:1018C000B34FB84202D0B34FB84206D14FF6FF57DC
:1018D000394046F48077394305E04FF2FF573940ED
:1018E00044F48077394382830184F0BD028B4FF248
:1018F000FF331A400283028B4FF6FF7303EA012382
:101900001A4302837047F0B50C46154600220021A9
:101910000026078C4FF6EF7C07EA0C070784028B42
:10192000018C4FF6FF7707EA041640F6FF473A406E
:101930004FF6FF7707EA03373A434FF6FF7707EA98
:1019400005273A438F4FB8420ED08F4FB8420BD085
:10195000B0F1804F08D08D4FB84205D08C4FB842BF
:1019600002D08C4FB84206D14FF6DF77394046F0AF
:101970001007394305E04FF65F77394044F0100710
:10198000394302830184F0BD028B4FF6F3731A4092
:101990000283028B0A4302837047F0B50C4615465A
:1019A00000220021068C4FF6FE773E400684028B13
:1019B000018C4FF60C7632407E1C06EA03162E434D
:1019C0003243704EB0420ED06F4EB0420BD0B0F1E9
:1019D000804F08D06D4EB04205D06D4EB04202D05F
:1019E0006C4EB04206D14FF6FD76314044F0010610
:1019F000314305E04FF6F576314044F001063143BE
:101A000002830184F0BD70B505460C465D488542F1
:101A10000ED05D4885420BD0B5F1804F08D05B48B1
:101A2000854205D05A48854202D05A48854200D1A5
:101A300000E000BF208850B92389A2886188284629
:101A4000FFF7ABFFE1882846FFF79EFF25E02088DF
:101A500004280AD12389A28861882846FFF753FF0A
:101A6000E1882846FFF742FF17E0208808280AD1BE
:101A70002389A28861882846FFF7FBFEE188284673
:101A8000FFF7EEFE09E02389A28861882846FFF768
:101A9000A6FEE1882846FFF795FE70BD2DE9F041CE
:101AA00005460C4600260127608808B9022600E09A
:101AB0000026A088012801D1022700E00127208804
:101AC000A0B92389A28861882846FFF766FFE188CC
:101AD0002846FFF759FF23893A4631462846FFF743
:101AE00012FFE1882846FFF701FF13E02389A2884F
:101AF00061882846FFF707FFE1882846FFF7F6FED2
:101B000023893A4631462846FFF747FFE1882846B1
:101B1000FFF73AFFBDE8F0810A884B881A438B88AB
:101B20001A43CB881A430B891A434B891A438B8972
:101B30001A43A0F8442070474FF6FF7181800021BE
:101B40000180C18041800172704700210180418085
:101B50008180C180018141818181C18170470021E3
:101B600001804180012181800021C1800181704775
:101B70000021018041808180C1800181418181817A
:101B800070470000002C0140003401400004004078
:101B900000080040000C004021B1028842F0010220
:101BA000028004E002884FF6FE731A4002807047FC
:101BB00031B1B0F8442042F40042A0F8442005E0DE
:101BC000B0F84420C2F30E02A0F8442070471AB1C6
:101BD00083890B43838102E083898B438381704730
:101BE0008182704741EA0203A0F8483070471AB179
:101BF00083890B43838102E083898B438381704710
:101C000001894FF6F8721140018170470A460021A0
:101C100001894FF68F73194011430181704730B528
:101C200004460D4629462046FFF7F0FF208940F084
:101C30000700208130BD2DE9F04104460D461646CF
:101C40001F46602D06D13B46012231462046FFF754
:101C50005AFE05E03B46012231462046FFF79DFE35
:101C600029462046FFF7D2FF208940F00700208157
:101C7000BDE8F08130B50C4600210189C9B24FF6AC
:101C8000FF7505EA0325154325432943018130BD2E
:101C90002DE9F04105460E46174698460024434676
:101CA0003A4631462846FFF7E5FF2C894FF6F87093
:101CB000044044F007044FF68F70044044F0700471
:101CC0002C81BDE8F081F0B504460D4616461F464E
:101CD0003B46324629462046FFF7CCFF208940F498
:101CE00080402081F0BD0185828270470A46002134
:101CF00001884FF68F731940114301807047F0B58A
:101D00000C4615461E460021002200230189028B45
:101D1000038C4FF6F877394021434FF6FC473A40A1
:101D200040F201173A434FF6DD773B404FF6FF771D
:101D300007EA06172F433B43018102830384F0BD6A
:101D40000A460021018B4FF68F731940114301831E
:101D500070470A460021018B48F6FF7319404FF681
:101D6000FF7303EA02231943018370470A460021E7
:101D7000818B4FF68F7319401143818370470A4658
:101D80000021818B48F6FF7319404FF6FF7303EA79
:101D9000022319438183704721B1028842F08002F7
:101DA000028004E002884FF67F731A400280704779
:101DB00021B1828842F00402828004E082884FF6DA
:101DC000FB731A408280704721B1828842F008027A
:101DD000828004E082884FF6F7731A408280704751
:101DE00021B1828842F00102828004E082884FF6AD
:101DF000FE731A40828070470A460021018B4FF61D
:101E0000F77319401143018370470A460021018B83
:101E10004FF2FF7319404FF6FF7303EA0223194391
:101E2000018370470A460021818B4FF6F7731940F2
:101E30001143818370470A460021818B4FF2FF7363
:101E400019404FF6FF7303EA022319438183704759
:101E50000A460021018B4FF6FB73194011430183A1
:101E600070470A460021018B4FF6FF3319404FF6A9
:101E7000FF7303EA02231943018370470A460021D6
:101E8000818B4FF6FB7319401143818370470A46DB
:101E90000021818B4FF6FF3319404FF6FF7303EAA1
:101EA00002231943818370470A460021018B4FF6B4
:101EB0007F7319401143018370470A460021018B4B
:101EC000C1F30E014FF6FF7303EA022319430183A6
:101ED00070470A460021818B4FF67F7319401143EA
:101EE000818370470A460021818BC1F30E014FF6B2
:101EF000FF7303EA02231943818370470A460021D6
:101F0000018C4FF6FD7319401143018470470A4656
:101F10000021018C4FF6F77319401143018470477B
:101F20000A460021018C4FF6DF7319404FF6FF730C
:101F300003EA02131943018470470A460021018C09
:101F40004FF67F7319404FF6FF7303EA02131943EC
:101F5000018470470A460021018C4FF6FF53194057
:101F60004FF6FF7303EA02231943018470470A46C0
:101F70000021018C4FF2FF7319404FF6FF7303EA03
:101F800002231943018470470A460021018C4DF653
:101F9000FF7319404FF6FF7303EA023319430184BC
:101FA000704730B5002301248C40A3B2048C9C43BD
:101FB0000484048C02FA01F5ADB22C43048430BDD4
:101FC00030B5002304248C40A3B2048C9C430484C9
:101FD000048C02FA01F5ADB22C43048430BD70B517
:101FE0000346002000241846183001258D40ACB26D
:101FF0001D8CA5431D8409B1082909D100EB61009E
:10200000056825F0700505600568154305600EE05C
:102010000D1FC5F34E052844056825F4E04505600D
:1020200005684FF6FF7606EA02263543056070BD67
:1020300021B1028842F00202028004E002884FF6D9
:10204000FD731A400280704721B1028842F00402F9
:10205000028004E002884FF6FB731A40028070474A
:1020600021B1828842F08002828004E082884FF6AB
:102070007F731A408280704702884FF6F7731A40C8
:10208000028002880A430280704782884FF68F736D
:102090001A40828082880A438280704702894FF604
:1020A000F8731A40028102890A430281704702894B
:1020B0004FF67F731A40028102890A4302817047FA
:1020C000818470478185704781867047018770479A
:1020D00081877047A0F84010704702884FF6FF4391
:1020E0001A40028002880A43028070470146888EA7
:1020F00070470146088F70470146888F7047014638
:10210000B1F8400070470146888C70470146088D41
:10211000704702460020138A0B400BB1012000E0FB
:1021200000207047CA430282704730B50246002043
:1021300000230024158A05EA0103958905EA0104B4
:1021400013B10CB1012000E0002030BDCA4302826F
:1021500070470021002200BF07E0002201E0531C6D
:102160009AB2322AFBDB4B1C99B28142F5D37047FD
:102170000021002200BF08E0002201E0531C9AB2B7
:10218000B2F5FA5FFADB4B1C99B28142F4DB70477F
:1021900008B501210820FEF791FA4FF44070ADF820
:1021A000000004208DF8030069468448FEF74AFBCE
:1021B00001211020FEF782FAC020ADF800000420B3
:1021C0008DF8030069467E48FEF73CFB08BD00B56C
:1021D00087B00121C802FEF771FA01214803FEF71A
:1021E0006DFA7848FFF7A8F804A8FFF7A5FC0020CF
:1021F000ADF810004FF6FF70ADF814000020ADF8F8
:102200001600ADF8120004A96E48FFF769F90A2319
:102210001A4603216B48FFF772FD01A8FFF79FFCE8
:102220000620ADF80C0001A96648FFF7ECFB002082
:1022300064492431088001216248FFF7ADFC6248FF
:10224000FFF77AF804A8FFF777FC0020ADF810003C
:102250004FF6FF70ADF814000020ADF81600ADF891
:10226000120004A95848FFF73BF900231A4603213E
:102270005548FFF744FD01A8FFF771FC0620ADF8B3
:102280000C0001A95048FFF7BEFB00204E49243145
:10229000088001214C48FFF77FFC07B000BD10B556
:1022A000FFF776FFFFF793FF10BD10B54648FFF725
:1022B0002AFF4649086000204349243108804248EB
:1022C000008800F0100028B140480068A0F5803078
:1022D0003E4908603D48006840423C490860394832
:1022E000FFF711FF3A490860002036492431088081
:1022F0003448008800F0100028B135480068A0F587
:1023000080303349086032480068404230490860F4
:102310002E480068B0F5C87F04DC2C48006810F532
:10232000C87F03DA2B4800682849086028480068FD
:10233000B0F5C87F04DC2648006810F5C87F03DAD2
:102340002548006822490860204800682149086043
:102350001F480068204908601C4800681F49486001
:102360001B4800681E49486018480068012804DCC2
:1023700016480068B0F1FF3F06DA1A4800681349B2
:10238000096808441749086011480068012804DCFE
:102390000F480068B0F1FF3F06DA134800680C49A7
:1023A00009680844104908600F4800680D49096829
:1023B000084440100D49086010BD000000080140AD
:1023C0000010014000340140002C01402800002092
:1023D0002C0000203000002034000020AC00002041
:1023E000D00000203C0000203800002040000020E9
:1023F00008B501210820FEF761F946F22230ADF858
:10240000000028208DF8030069462E48FEF71AFACE
:1024100001211020FEF752F94FF22F00ADF8000015
:1024200028208DF8030069462748FEF70BFA0121A2
:102430002020FEF743F90420ADF8000028208DF895
:10244000030069462148FEF7FDF908BD70B5044652
:102450000025012C09D0092C07D00D2C05D00E2CFD
:1024600003D00F2C01D0102C07D1194830F81410CC
:102470001448FEF77AFA054622E0022C0FD0032C0E
:102480000DD0042C0BD0052C09D0062C07D0072C1E
:1024900005D0082C03D00A2C01D00B2C07D10C48F6
:1024A00030F814100848FEF760FA054608E00C2CD6
:1024B00006D1074830F814100448FEF756FA0546CE
:1024C000284670BD000C014000100140001401407E
:1024D0004400002008B501211020FEF7EFF84FF46A
:1024E0004070ADF8000010208DF8030003208DF837
:1024F000020069463A48FEF7A5F901210420FEF7DB
:10250000DDF84FF4C050ADF8000010208DF8030046
:1025100003208DF8020069463248FEF793F9012145
:102520000820FEF7CBF849F20100ADF800001020BA
:102530008DF8030003208DF8020069462A48FEF753
:1025400081F908BD10B50446012C01D0052C06D137
:10255000264830F814102248FEF721FA18E0022C21
:1025600003D0032C01D0042C06D1204830F81410DD
:102570001C48FEF714FA0BE0062C03D0072C01D000
:10258000082C05D1194830F814101748FEF707FA3F
:1025900010BD10B50446012C01D0052C06D11348FE
:1025A00030F814100E48FEF7FCF918E0022C03D0A6
:1025B000032C01D0042C06D10C4830F81410094823
:1025C000FEF7EFF90BE0062C03D0072C01D0082C06
:1025D00005D1064830F814100348FEF7E2F910BDA3
:1025E0000010014000080140000C0140660000207E
:1025F00008B501210420FEF761F80520ADF80000C0
:1026000018208DF8030003208DF8020069464A481F
:10261000FEF718F901210420FEF750F80A20ADF862
:10262000000010208DF8030003208DF80200694699
:102630004148FEF707F908BD00B587B001210846FB
:10264000FEF749F84FF08040FEF776FE0420ADF823
:1026500010000020ADF812004FF4FA60ADF814003D
:102660000020ADF8160004A94FF08040FEF738FFB7
:102670007020ADF800000120ADF802004FF47A7030
:10268000ADF806000220ADF8080069464007FEF7E5
:1026900064FF0821C806FFF7AFFB69464FF0804092
:1026A000FEF7EAFF0821C806FFF7BCFB01218807F7
:1026B000FFF772FB01218807FFF76EFA07B000BD34
:1026C00010B5FFF795FFFFF7B7FF10BD10B5044633
:1026D000002C0ADA02211848FEF763F9604281B241
:1026E0004FF08040FFF7F0FC0AE002211248FEF7AD
:1026F00056F9C4F5FA6081B24FF08040FFF7E4FC70
:1027000010BD10B50446002C0ADA08210A48FEF76D
:1027100048F9604281B24FF08040FFF7D9FC0AE0EF
:1027200008210548FEF73BF9C4F5FA6081B24FF085
:102730008040FFF7CDFC10BD0008014008B5012125
:102740000420FDF7BBFFF020ADF8000000208DF85D
:10275000030069463748FEF775F801211020FDF7A0
:10276000ADFF1020ADF8000000208DF80300694691
:102770003148FEF767F808BD00B585B00121880231
:10278000FDF79CFF002000908DF8040001208DF8DB
:1027900005004FF4602002900020039010208DF877
:1027A000100069462548FEF7C6FB01212348FEF7C5
:1027B000EEFB2248FEF70DFC00BF2048FEF70EFCA2
:1027C0000028FAD11D48FEF713FC00BF1B48FEF796
:1027D00014FC0028FAD101211848FEF718FC05B0B6
:1027E00000BD10B5FFF7AAFFFFF7C6FF10BD70B51B
:1027F0000446002500211148FEF709FC1048015D40
:1028000001231A460D48FEF72EFC01210B48FEF766
:10281000FEFB00BF02210948FEF76AFD0028F9D03F
:102820000648FEF787FC054600210448FEF7EFFB4B
:10283000284670BD000801400010014000280140FA
:102840000A36000808B501210420FDF737FFC02033
:10285000ADF8000018208DF8030003208DF8020069
:1028600069463148FDF7EEFF08BD00B587B001218C
:102870000420FDF730FF4FF42F70ADF8100000205A
:10288000ADF812004FF4FA60ADF814000020ADF876
:1028900016008DF8180004A92448FEF721FE7020C8
:1028A000ADF800000120ADF802000020ADF80400F2
:1028B0008C20ADF806000020ADF808004FF48070C1
:1028C000ADF80C000020ADF80E0069461748FEF781
:1028D00044FE08211548FFF78FFA69461348FEF7B2
:1028E0007EFE08211148FFF790FA01210F48FFF7FB
:1028F00053F901210D48FFF75BF907B000BD10B592
:10290000FFF7A0FFFFF7B1FF10BD10B50446214649
:102910000648FFF7D9FB10BD10B504462146034811
:10292000FFF7D4FB10BD0000000C01400008004080
:1029300008B501211420FDF7C1FE4FF40070ADF879
:10294000000018208DF8030003208DF8020069466E
:102950005648FDF777FF4FF48060ADF80000042083
:102960008DF8030069465148FDF76CFF4FF4806015
:10297000ADF8000018208DF8030003208DF8020048
:1029800069464B48FDF75EFF4FF40060ADF800006C
:1029900004208DF8030069464548FDF753FF08BD44
:1029A00000B585B00121C804FDF795FE4FF416501F
:1029B00001900020ADF80800ADF80A00ADF80C0059
:1029C000ADF810000C20ADF80E0001A93948FEF753
:1029D000CAF801213748FEF752F901218803FDF7B3
:1029E0006DFE4FF4165001900020ADF80800ADF8D0
:1029F0000A00ADF80C00ADF810000C20ADF80E0088
:102A0000012240F225512C48FEF745F901A92A4838
:102A1000FEF7A9F801212848FEF731F94FF4C0600C
:102A2000FDF770FC25208DF8000001208DF80100D5
:102A30008DF802008DF803006846FDF768FC05B0CC
:102A400000BD10B5FFF774FFFFF7AAFF10BD10B56A
:102A5000044621461748FEF77FF900BF802115483C
:102A6000FEF7E8F90028F9D010BD10B5044621465C
:102A70001148FEF771F900BF80210F48FEF7DAF91F
:102A80000028F9D010BD10B540F225510A48FEF7D4
:102A9000E7F948B10848FEF763F90849087040F2C1
:102AA00025510548FEF706FA10BD00000008014058
:102AB00000100140004C0040003801407800002028
:102AC00010B501210820FDF7F9FD10BD08B5012161
:102AD0000820FDF7F3FD4FF48060ADF800001020F2
:102AE0008DF8030002208DF802006946FE48FDF7CC
:102AF000A9FE08BD38B5044601210820FDF7DEFD1A
:102B00004FF40060ADF800001CB110208DF80300F8
:102B100002E004208DF8030002208DF802006946CF
:102B2000F148FDF78FFE38BD10B5FFF7CFFF01204C
:102B3000FFF7E0FF4FF48061EB48FDF732FF4FF401
:102B40000061E948FDF72DFF0120FFF711FB4FF46D
:102B50008061E548FDF723FF4FF40061E248FDF78F
:102B60001EFF10BD10B54FF40061DF48FDF717FFE1
:102B70004FF48061DC48FDF712FF0A20FFF7E9FA05
:102B80004FF40061D848FDF70CFF0A20FFF7E1FA87
:102B90004FF48061D448FDF704FF0A20FFF7D9FA0B
:102BA00010BD10B54FF40061CF48FDF7FAFE0120CB
:102BB000FFF7CFFA4FF48061CB48FDF7F0FE01201C
:102BC000FFF7C7FA4FF40061C748FDF7E8FE0A2097
:102BD000FFF7BFFA10BD70B505464FF48061C248DB
:102BE000FDF7DFFE002421E005FA04F000F080008C
:102BF00028B14FF40061BC48FDF7D1FE04E04FF46A
:102C00000061B948FDF7CDFE0120FFF7A2FA4FF4AD
:102C10008061B548FDF7C3FE0120FFF79AFA4FF433
:102C20008061B148FDF7BDFE601CC4B2082CDBDB3F
:102C30000520FFF78EFA4FF40061AB48FDF7AFFEB9
:102C40000520FFF786FA4FF48061A748FDF7A7FE3D
:102C50000020FFF74FFF0520FFF77BFA4FF40061DC
:102C6000A148FDF782FE18B10020A049087002E0DB
:102C700001209E4908700120FFF73CFF4FF480615E
:102C80009948FDF78EFE70BD70B500244FF40061C9
:102C90009548FDF784FE0520FFF75BFA0020FFF75B
:102CA00029FF0520FFF755FA00251EE00520FFF754
:102CB00050FA4FF480618C48FDF773FE0520FFF752
:102CC00048FA4FF480618848FDF769FE6006040EFB
:102CD0004FF400618448FDF748FE08B1601CC4B29F
:102CE0000520FFF736FA681CC5B2082DDEDB4FF46D
:102CF00080617D48FDF755FE0520FFF72AFA012087
:102D0000FFF7F8FE204670BD10B54FF4806176489D
:102D1000FDF747FE4FF400617348FDF740FE0520C4
:102D2000FFF717FA0020FFF7E5FE0520FFF711FA7D
:102D30004FF480616C48FDF732FE0520FFF709FA79
:102D40004FF400616848FDF710FE04460520FFF7C8
:102D500000FA0120FFF7CEFE204610BD10B5044654
:102D60002CB14FF400616048FDF719FE04E04FF408
:102D700000615D48FDF715FE0520FFF7EAF94FF405
:102D800080615948FDF70BFE0520FFF7E2F94FF48B
:102D900080615548FDF705FE0520FFF7DAF910BD03
:102DA00070B506460C461546FFF7DCFE3046FFF7C9
:102DB00012FF2046FFF70FFF2846FFF70CFFFFF733
:102DC000F0FE70BD2DE9F04107460C4615461E4643
:102DD000FFF7C8FE3846FFF7FEFE2046FFF7FBFE72
:102DE0002846FFF7F8FE3046FFF7F5FEFFF7D9FE5D
:102DF0000120FFF7BDF9BDE8F08170B504460D462E
:102E0000FFF7B0FE2046FFF7E6FE2846FFF7E3FE99
:102E1000FFF7A8FE611CC8B2FFF7DDFEFFF734FF25
:102E200006460120FFF79AFFFFF7BBFE304670BD54
:102E300001461D2930D2DFE801F02F111315232F91
:102E40002F2F2F17191B252F2F2F2F1D1F21272F16
:102E50002F2F2F2B0F2D290000201FE001201DE018
:102E600002201BE0032019E0042017E0052015E0F4
:102E7000062013E0072011E008200FE009200DE0F4
:102E80000A200BE00B2009E00C2007E00D2005E0F4
:102E90000E2003E00F2001E0102000BF00BF7047AC
:102EA00010B50446FFF75EFE7020FFF794FE072082
:102EB000FFF791FE2046FFF78EFEFFF772FE10BD72
:102EC00070B505460C46FFF74DFE7020FFF783FEF8
:102ED0000720FFF780FE2846FFF77DFE2046FFF71C
:102EE0007AFEFFF75EFE03E0000C0140790000204F
:102EF0000120FFF73DF970BD10B5FFF733FE7020DC
:102F0000FFF769FE1020FFF766FE002404E00020B2
:102F1000FFF761FE601CC4B2082CF8DBFFF741FE2E
:102F200010BD2DE9F04104460E461746072C00DD82
:102F30000724FFF717FE7020FFF74DFE0720FFF76D
:102F40004AFE251DE91705EB5171C910A5EBC1011A
:102F5000C9B241F06000FFF73EFE46EAC711C8B2B1
:102F6000FFF739FEFFF71DFE0120FFF701F9BDE86D
:102F7000F08110B50024FFF7F5FD7020FFF72BFE60
:102F80000120FFF728FEFFF7EDFD7120FFF723FE7C
:102F9000FFF77AFE04460120FFF7E0FEFFF701FE8F
:102FA0002046FFF745FF0446204610BD38B50446CD
:102FB000642094FBF0F0C0B28DF80000642094FB14
:102FC000F0F100FB11400A2190FBF1F0C0B28DF846
:102FD00001000A2094FBF0F100FB1140C0B28DF813
:102FE00002009DF8001000220120FFF79AFF9DF8D3
:102FF000011000220220FFF794FF9DF8021000222A
:103000000320FFF78EFF38BD70B500BF00240424F5
:103010001EE000BFFFF7ADFF1028FBD0FFF7A9FFB0
:10302000211F1B4A42F82100201F114651F82000A1
:10303000092806DC201F12F8201000222046FFF786
:1030400070FF00BFFFF795FF1028FBD1601CC4B2D2
:10305000082CDEDB0E4800684FF47A7148430C49B7
:10306000496801EBC10202EB011100EB8100084944
:10307000896801EB810100EB41000549C9684518E9
:103080004FF47A70FFF774F8FFF736FF284670BDEB
:103090009C0000202AE000240025FFF72DFF00BF40
:1030A000FFF767FF1028FBD0FFF763FF044600BF60
:1030B000FFF75FFF1028FBD1FFF7A6FF0546012CA5
:1030C00008D102E028B2FFF701FBFFF752FF1028FA
:1030D000F8D00AE0022C08D103E0684200B2FFF702
:1030E000F5FAFFF746FF1028F7D000BFD3E7FDF74A
:1030F00088F8FFF77DF9FFF7EDF9FFF772FBFFF7AF
:1031000013FDFFF7DDFAFFF7FAFBFFF7C8F84FF4FE
:103110007A70FFF72DF80020FFF7D8FA0020FFF7AC
:10312000F0FAFFF7B7FF0024002211461046FFF720
:10313000F8FEC820FFF71CF8002211460120FFF717
:10314000F0FEC820FFF714F8002211460220FFF716
:10315000E8FEC820FFF70CF8002211460320FFF715
:10316000E0FEC820FFF704F84FF47A70FFF700F88C
:10317000FFF7C2FEC4E0F7480068401CF54908604C
:1031800008460068B0F57A6F01DB00200860FFF7A1
:10319000F0FE0446012C06D0022C29D0032C4CD082
:1031A000042C24D170E0002211461046FFF7B9FE2E
:1031B000C820FEF7DDFF002211460120FFF7B1FE17
:1031C000C820FEF7D5FF002211460220FFF7A9FE16
:1031D000C820FEF7CDFF002201210320FFF7A1FE4A
:1031E000C820FEF7C5FFFFF70FFFDB49086072E05C
:1031F000002211461046FFF794FEC820FEF7B8FFE4
:10320000002211460120FFF78CFEC820FEF7B0FF18
:10321000002211460220FFF784FEC820FEF7A8FF17
:10322000002202210320FFF77CFEC820FEF7A0FF4A
:10323000FFF7EAFEC94908604DE00022114610463A
:10324000FFF76FFEC820FEF793FF00221146012012
:10325000FFF767FEC820FEF78BFF00221146022011
:10326000FFF75FFEC820FEF783FF00220321084618
:10327000FFF757FEC820FEF77BFFFFF7C5FEC0F53E
:10328000FA60B749086026E0002211461046FFF7B1
:1032900048FEC820FEF76CFF002211460120FFF710
:1032A00040FEC820FEF764FF002211460220FFF70F
:1032B00038FEC820FEF75CFF002204210320FFF740
:1032C00030FEC820FEF754FFFFF79EFEC0F5FA60FF
:1032D000A449086000BF00BFA148008800B2FFF702
:1032E000F5F9A048008800B2FFF70BFA9A4909885F
:1032F00088B2FFF70AFB9949098888B2FFF70CFBEF
:1033000039E700240AE0002406E0611CC8B2FFF798
:103310009DF895490855641C102CF6DBF3E737E05F
:103320000120FFF70FF90220FFF70CF90320FFF748
:1033300009F90420FFF706F90520FFF72AF906200E
:10334000FFF727F90720FFF724F90820FFF721F9F5
:103350004FF47A70FEF70CFF0120FFF71AF90220F4
:10336000FFF717F90320FFF714F90420FFF711F90D
:103370000520FFF7E7F80620FFF7E4F80720FFF73E
:10338000E1F80820FFF7DEF84FF47A70FEF7F0FE60
:10339000C6E700240DE0012409E0E0B2FFF727FAB8
:1033A000724921F814000320FEF7E2FE641C062C8B
:1033B000F3DBF0E709E0F020FFF749FBF120FFF72E
:1033C00054FB4FF4FA70FEF7D3FEF4E700221146E7
:1033D0001046FFF7A6FD4FF4FA60FEF7C9FE002283
:1033E00001210846FFF79DFD4FF4FA60FEF7C0FE8D
:1033F000002202210846FFF794FD4FF4FA60FEF721
:10340000B7FE002203210846FFF78BFD4FF4FA6058
:10341000FEF7AEFE002204210846FFF782FD4FF4BE
:10342000FA60FEF7A5FE002205210846FFF779FDA8
:103430004FF4FA60FEF79CFE002206210846FFF7D3
:1034400070FD4FF4FA60FEF793FE00220721084654
:10345000FFF767FD4FF4FA60FEF78AFE40F6B830DA
:10346000FEF786FEFFF748FDFFF7CEFD40490860F6
:1034700000BFFEE709E03F48008800B2FFF726F9E9
:103480003C48008800B2FFF73CF9F4E709E03A490C
:10349000098888B2FFF739FA3749098888B2FFF7F7
:1034A0003BFAF4E701E0FEF700FFFCE77047002479
:1034B0000025FFF721FD1BE000BFFFF75AFD102894
:1034C000FBD0FFF756FD044600BFFFF752FD102862
:1034D000FBD1012C0CD10120FEF7B8FF05460022DC
:1034E00029460520FFF71DFD4FF4FA60FEF740FE68
:1034F000E2E70026002400250CE00120FEF7A6FFED
:103500000446B44202D005F12D00C5B22646284635
:10351000FFF7FBF9F1E700241BE0FFF7EDFCFFF7F5
:1035200028FD0446002221461046FFF7FAFC4FF41E
:103530007A70FEF71DFE012C04D0022C04D0032C5F
:1035400006D103E0FFF7B3FFFFF7D3FFFFF7A2FDBC
:1035500000BFE2E77C0000209400002098000020DB
:10356000880000208C0000203C0100204C0100203D
:10357000800000208400002090000020704700BFE1
:10358000FEE700BFFEE700BFFEE700BFFEE77047B3
:1035900070477047704710B501218807FEF7C5FDD9
:1035A00018B101218807FEF7D1FD10BD10B501212A
:1035B0000448FEF7BAFD18B101210248FEF7C6FD26
:1035C00010BD000000080040064C074D06E0E06812
:1035D00040F0010394E8070098471034AC42F6D35A
:1035E000FCF788FD103600083036000802E008C8F5
:1035F000121F08C1002AFAD170477047002001E06D
:1036000001C1121F002AFBD1704700040506070EF6
:1036100030360008000000209C000000EC35000857
:10362000CC3600089C000020BC040000FC350008DB
:1036300000A24A0400000000000000000102030490
:103640000607080900000000010203040102030448
:103650000607080902040608000000000000000038
:10366000000000000000000000000000000000005A
:103670000000000000000002002000400080080060
:1036800004000200010002002000001004000001FC
:103690002000004000200000000200000010000890
:1036A0000001008000100100000000000000000088
:1036B00000000000E8030000E8030000E803000049
:0C36C0008C0000008C0000008C0000005A
:0400000508000101ED
:00000001FF
