:020000040800F2
:1000000090020020AD1B0008B11B0008B31B0008C4
:10001000B51B0008B71B0008B91B00080000000052
:10002000000000000000000000000000BB1B0008F2
:10003000BD1B000800000000BF1B0008D30500081E
:10004000D5050008D7050008D9050008DB0500081C
:10005000DD050008DF050008E1050008E3050008EC
:10006000E5050008E7050008E9050008C31B0008CE
:10007000C31B0008C31B0008C31B0008C31B0008E8
:10008000C31B0008C31B0008C31B0008C31B0008D8
:10009000C31B0008C31B0008C31B0008030600089D
:1000A0004506000847060008490600084B060008F8
:1000B0004D0600084F0600085106000853060008C8
:1000C0005506000857060008590600085B06000898
:1000D0005D0600085F060008610600086306000868
:1000E00065060008670600086906000800F002F8C7
:1000F00000F03CF80AA090E8000C82448344AAF186
:100100000107DA4501D100F031F8AFF2090EBAE883
:100110000F0013F0010F18BFFB1A43F0010318473B
:100120003C1B00005C1B0000103A24BF78C878C15B
:10013000FAD8520724BF30C830C144BF04680C60ED
:10014000704700000023002400250026103A28BF35
:1001500078C1FBD8520728BF30C148BF0B60704739
:100160001FB5AFF300801FBD10B510BD01F03BFD02
:100170001146FFF7F5FF00F007F801F059FDFFF712
:10018000F3FF01F05FFD000010B500F0FFF900F093
:1001900007FA04E04FF40071014801F089FCF9E727
:1001A0000008014000B587B00121042000F0E3FB06
:1001B0001E480088ADF814004FF47A60ADF81000C6
:1001C0000020ADF81600ADF8120004A9184800F0A0
:1001D00092FC7020ADF800000120ADF80200154837
:1001E0000088ADF806000220ADF808006946104806
:1001F00000F09AFC7020ADF800000120ADF802007C
:100200000D480088ADF806000220ADF808006946E8
:10021000074800F0C0FC0121054800F0C9FE01219B
:10022000034800F0D1FE07B000BD00000000002030
:1002300000080040020000200400002010B54FF428
:100240008041434801F036FC4FF40041404801F042
:1002500031FC4FF480613E4801F02CFC4FF400610A
:100260003B4801F027FC10BD10B50446002C13DDFF
:1002700038480088844202DD3648008804B24FF4D2
:100280008041334801F014FC4FF40041304801F044
:1002900011FC31490C8016E02E480088404200B223
:1002A000844203DA2B480088404204B24FF4804174
:1002B000274801F0FFFB4FF40041254801F0F8FB0F
:1002C00060422549088024480188244801F0F2F85A
:1002D00010BD10B50446002C13DD1E480088844272
:1002E00002DD1C48008804B24FF48061184801F018
:1002F000DFFB4FF40061164801F0DCFB18490C806D
:1003000016E014480088404200B2844203DA1148E3
:100310000088404204B24FF480610D4801F0CAFBEE
:100320004FF400610A4801F0C3FB60420C490880A9
:100330000B480188094801F0BFF810BD70B50446AC
:100340000D462846FFF790FF2046FFF7C2FF70BD1D
:10035000000C0140000000200200002000080040C6
:100360000400002005E0022100BF0A00A1F1010104
:10037000FBD10200A0F10100F5D170470EB54FF49A
:10038000E070ADF8080003208DF80A0048208DF8D1
:100390000B0002A9444801F0E3FA0621002001F015
:1003A000DEFB0721002001F0DAFB0821002001F02C
:1003B000D6FB4FF4E070009000208DF80400102070
:1003C0008DF8050001208DF80600684601F0C8F997
:1003D0000EBD2DE9F0410024002500260027402114
:1003E000314801F04BFB44B280212F4801F046FB1D
:1003F00040EA440044B24FF480712B4801F03EFBC8
:1004000040EA440044B204F00705082D2DD2DFE88D
:1004100005F02721201A140F090430214842FFF764
:100420008DFF22E030216C20FFF788FF01261CE0C1
:100430006C210846FFF782FF17E048216C20FFF788
:100440007DFF012611E06C213020FFF777FF0127A7
:100450000BE00AE06C214820FFF770FF012704E061
:1004600000210846FFF76AFF00BF00BF062D01D13B
:10047000012E03D0042D07D1012E05D100276FF0E6
:1004800023014820FFF75AFF032D01D1012F03D08C
:10049000022D07D1012F05D1002648216FF023003E
:1004A000FFF74CFFBDE8F0810008014008B50121CD
:1004B000042000F053FA0121082000F04FFA012136
:1004C000102000F04BFA4FF40070ADF8000003204C
:1004D0008DF8020010208DF803006946294801F0CC
:1004E0003FFA4FF40071274801F0E4FA0220ADF81A
:1004F000000003208DF8020028208DF803006946D3
:10050000214801F02DFAC020ADF8000018208DF828
:10051000030003208DF8020069461B4801F020FA11
:100520004FF44040ADF8000010208DF80300032088
:100530008DF802006946144801F012FA4FF4804128
:10054000114801F0B7FA4FF400410F4801F0B2FA38
:100550004FF44060ADF8000010208DF80300032038
:100560008DF802006946084801F0FAF94FF48061FD
:10057000054801F09FFA4FF40061034801F09AFA30
:1005800008BD000000080140000C014010B500F05B
:100590000BF8FFF78BFFFFF705FE00F066F810BDC4
:1005A00010B5FFF7EBFE10BD10B501F02EF80248B4
:1005B00000F066F910BD00001C000020704700BF6D
:1005C000FEE700BFFEE700BFFEE700BFFEE77047A3
:1005D0007047704770477047704770477047704763
:1005E0007047704770477047704770477047704753
:1005F0007047704770477047704770477047704743
:10060000704710B5402001F027F928B1FFF7E1FE4F
:10061000402001F032F914E0802001F01DF928B1EA
:10062000FFF7D7FE802001F028F90AE04FF4807030
:1006300001F012F928B1FFF7CCFE4FF4807001F001
:100640001CF910BD7047704770477047704770477E
:1006500070477047704770477047704770477047E2
:100660007047704770477047704708B54FF4C060D7
:1006700000F0F6FF17208DF8000000208DF8010033
:100680008DF8020001208DF80300684600F0EDFFB0
:1006900008BD0000DA48006840F00100D849086051
:1006A00008464068D7490840D54948600846006870
:1006B000D5490840D24908600846006820F48020E7
:1006C00008600846406820F4FE004860002088600A
:1006D0007047CB49096821F48031C94A116011463D
:1006E000096821F480211160B0F5803F03D0B0F596
:1006F000802F0ED106E0C249096841F48031C04A1A
:10070000116007E0BE49096841F4A021BC4A1160AC
:1007100000E000BF00BF704710B501460022002373
:1007200000204A11012A02D1B54C236806E0022AB2
:1007300002D1B34C236A01E0B14C636A01F01F029D
:10074000012494401C4201D0012000E0002010BD93
:1007500070B500240025002600BF3120FFF7DCFF24
:100760000646641C16B9B4F5A06FF6D13120FFF728
:10077000D3FF08B1012500E00025284670BD002107
:100780009F4A116821F0F80141EAC00111607047E9
:100790009E49086070470022994B5A6822F47C12E7
:1007A00040EA01031A43964B5A607047974908661E
:1007B00070470021924A516821F0030101435160C2
:1007C00070478F48406800F00C00704700218C4A49
:1007D000516821F0F0010143516070470021884ABF
:1007E000516821F4E0610143516070470021844A5F
:1007F000516821F4605141EAC0015160704729B14C
:100800007F4A527A02437E4B5A7206E07C4A527A01
:10081000C343DBB21A407A4B5A7270477B49D831D6
:10082000086070470021764A516821F44041014335
:10083000516070470021724A20321170704A82F86C
:100840002010012802D004280AD104E001216C4ABA
:100850002032117005E00521694A2032117000E054
:1008600000BF00BF70476A49086070476449096A61
:100870000143634A11627047654944390860704713
:1008800030B500210022002300245D4D6D6805F085
:100890000C0121B1042905D0082923D105E05D4DC3
:1008A000056022E05B4D05601FE0554D6D6805F465
:1008B0007012022505EB9242514D6D6805F48033AC
:1008C0001BB9554D554305600BE04D4D6D6815F452
:1008D000003F03D0504D5543056002E04D4D554358
:1008E000056002E04B4D056000BF00BF444D6D68E0
:1008F00005F0F0010909494D6C5C0568E54045606B
:100900003F4D6D6805F4E061090A444D6C5C456833
:10091000E54085603A4D6D6805F46051C90A3F4D68
:100920006C5C4568E540C560354D6D6805F4404137
:10093000890B3A4D10356C5CC568B5FBF4F5056163
:1009400030BD29B12E4A526902432D4B5A6104E051
:100950002B4A526982432A4B5A61704729B1284A6F
:1009600092690243264B9A6104E0254A92698243C8
:10097000234B9A61704729B1214AD2690243204B27
:10098000DA6104E01E4AD26982431D4BDA61704786
:1009900029B11B4AD2680243194BDA6004E0184AB5
:1009A000D2688243164BDA60704729B1144A126943
:1009B0000243134B1A6104E0114A12698243104B3F
:1009C0001A61704712494039086070470F49C8647E
:1009D00070470B49C87170470948406A40F0807001
:1009E00007494862704701460020054A92680A425A
:1009F00001D0012000E00020704701498872704753
:100A0000001002400000FFF8FFFFF6FE0000424227
:100A10008004424200127A0000093D0006000020D6
:100A200010B50446F849601A8C4245D00CDCB4F18C
:100A3000804F1DD0F548201823D0B0F5806F29D005
:100A4000B0F5006F54D12EE0B0F5806F3DD0B0F519
:100A50008E3F03D0B0F5923F4AD13FE00121C8025A
:100A6000FFF796FF00214FF40060FFF791FF40E091
:100A700001210846FFF799FF00210120FFF795FFAC
:100A800037E001210220FFF790FF00210220FFF74D
:100A90008CFF2EE001210420FFF787FF00210420B6
:100AA000FFF783FF25E001210820FFF77EFF0021EB
:100AB0000820FFF77AFF1CE001211020FFF775FFE7
:100AC00000211020FFF771FF13E001212020FFF724
:100AD0006CFF00212020FFF768FF0AE00121480396
:100AE000FFF756FF00214FF40050FFF751FF00E0E1
:100AF00000BF00BF10BD028802F08F020280CA88CA
:100B00004B881A4303881A4302808A8882850A88A0
:100B10000285BF4A904202D0BE4A904201D10A7A71
:100B2000028601228282704770B5002200230024D1
:100B3000058C4FF6FE7635400584038C8488028B45
:100B40004FF68F752A400D882A43751E2B400D895C
:100B50002B434D882B43CD888586AD4DA84202D0CE
:100B6000AC4DA84213D14FF6F7752B404D892B435E
:100B70004FF6FB752B408D882B4347F6FF652C40C5
:100B800047F6FF552C408D892C43CD892C4384801A
:100B90000283038470BD70B5002200230024058CFD
:100BA0004FF6EF7635400584038C8488028B48F637
:100BB000FF752A400D882D0642EA15424FF6DF7573
:100BC0002B400D892D0543EA15434D882D0543EA39
:100BD0001543CD8805878E4DA84202D08D4DA84281
:100BE0001BD14FF67F752B404D892D0543EA1543E8
:100BF0004FF6BF752B408D882D0543EA154347F608
:100C0000FF352C4047F2FF752C408D89AD0444EA36
:100C10001544CD89AD0444EA1544848002830384DD
:100C200070BD70B5002200230024058C4FF6FF66CE
:100C300035400584038C8488828B4FF68F752A405B
:100C40000D882A434FF6FF552B400D892D0643EAA8
:100C500015434D882D0643EA1543CD8885876C4D95
:100C6000A84202D06B4DA8421BD14FF2FF752B401A
:100C70004D892D0643EA15434FF6FF352B408D88ED
:100C80002D0643EA154346F6FF752C4045F6FF75E1
:100C90002C408D892D0544EA1544CD892D0544EA63
:100CA000154484808283038470BD70B500220023C4
:100CB0000024058C4EF6FF7635400584038C84882D
:100CC000828B48F6FF752A400D882D0642EA1542B0
:100CD0004DF6FF752B400D892D0743EA15434D88CE
:100CE0002D0743EA1543CD88A0F84050484DA8424F
:100CF00002D0484DA84205D1C4F30D048D89AD053D
:100D000044EA154484808283038470BD828B4FF251
:100D1000FF331A408283828B0B0642EA134282839E
:100D20007047F0B5002400250026078C4EF6FF7CA6
:100D300007EA0C070784848B058C0F073E0C40F6EE
:100D4000FF473C4017063F0C4FEA037C47EA1C472D
:100D50003C434DF6FF773D4046F480573D43848346
:100D60000584F0BD828B4FF6F3731A408283828B29
:100D70000A4382837047F0B5002400250026078CC3
:100D80004FF6FF6C07EA0C070784848B058C0F066F
:100D90003E0C4FF60C773C401F0542EA17473C4398
:100DA0004FF6FF573D4046F480773D4384830584EA
:100DB000F0BD028B4FF2FF331A400283028B0B0609
:100DC00042EA134202837047F0B500240025002652
:100DD000078C4FF6EF7C07EA0C070784048B058C21
:100DE0000F053E0C40F6FF473C401F0744EA1744FE
:100DF000170644EA17444FF6DF773D4046F01007E8
:100E00003D4304830584F0BD0010004000FCFFBF9B
:100E1000002C014000340140028B4FF6F3731A405E
:100E20000283028B0A4302837047F0B50024002539
:100E3000068C4FF6FE773E400684048B058C4FF6F9
:100E40000C7634401E0542EA164634437E1E354079
:100E500041F00106354304830584F0BD70B50446B6
:100E60000D46288850B92B89AA8869882046FFF743
:100E7000DCFFE9882046FFF7CFFF25E0288804281B
:100E80000AD12B89AA8869882046FFF79DFFE98847
:100E90002046FFF78EFF17E0288808280AD12B8903
:100EA000AA8869882046FFF766FFE9882046FFF791
:100EB00059FF09E02B89AA8869882046FFF731FF8E
:100EC000E9882046FFF722FF70BD2DE9F041044676
:100ED0000D4600260127688808B9022600E0002692
:100EE000A888012801D1022700E001272888A0B99D
:100EF0002B89AA8869882046FFF797FFE988204652
:100F0000FFF78AFF2B893A4631462046FFF75CFF00
:100F1000E9882046FFF74DFF13E02B89AA886988EE
:100F20002046FFF751FFE9882046FFF742FF2B8953
:100F30003A4631462046FFF778FFE9882046FFF71A
:100F40006BFFBDE8F0810A884B881A438B881A43EF
:100F5000CB881A430B891A434B891A438B891A434E
:100F6000A0F8442070474FF6FF7181800021018076
:100F7000C1804180017270470021018041808180E1
:100F8000C180018141818181C1817047002101803F
:100F90004180012181800021C180018170470021B1
:100FA000018041808180C1800181418181817047C0
:100FB00021B1028842F00102028004E0028840F27E
:100FC000FE331A400280704731B1B0F8442042F439
:100FD0000042A0F8442005E0B0F84420C2F30E021D
:100FE000A0F84420704710B51AB183890B43838160
:100FF00004E08389CC43A4B22340838110BD818265
:10100000704741EA0203A0F84830704710B51AB1A2
:1010100083890B43838104E08389CC43A4B22340BA
:10102000838110BD01894FF6F8721140018170472C
:10103000002202894FF68F731A400A4302817047DB
:1010400030B504460D4629462046FFF7F1FF2089BA
:1010500040F00700208130BD2DE9F04104460D46E7
:1010600016461F46602D06D13B46012231462046DA
:10107000FFF7AAFE05E03B46012231462046FFF776
:10108000D4FE29462046FFF7D3FF208940F0070011
:101090002081BDE8F08170B500240489E4B241EA02
:1010A00002051E0645EA16452C43048170BD2DE954
:1010B000F04104460D461646984600274346324600
:1010C00029462046FFF7E7FF27894FF6F8700740CB
:1010D00047F007074FF68F70074047F070072781EA
:1010E000BDE8F081F0B504460D4616461F463B4666
:1010F000324629462046FFF7CEFF208940F4804043
:101100002081F0BD0185828270470022028840F272
:101110008F331A400A4302807047F0B5002400253F
:1011200000260489058B068C4FF6F8773C400C436B
:101130004FF6FC473D4040F201173D434FF6DD7747
:101140003E401F0542EA17473E430481058306845B
:10115000F0BD0022028B4FF68F731A400A430283C0
:1011600070470022028B48F6FF731A400B0642EAD2
:101170001342028370470022828B4FF68F731A400E
:101180000A43828370470022828B48F6FF731A401D
:101190000B0642EA13428283704721B1028842F073
:1011A0008002028004E0028840F27F331A4002800D
:1011B000704721B1828842F00402828004E0828874
:1011C0004FF6FB731A408280704721B1828842F04B
:1011D0000802828004E082884FF6F7731A4082800A
:1011E000704721B1828842F00102828004E0828847
:1011F0004FF6FE731A40828070470022028B4FF632
:10120000F7731A400A43028370470022028B4FF2A1
:10121000FF731A400B0642EA134202837047002212
:10122000828B4FF6F7731A400A438283704700227D
:10123000828B4FF2FF731A400B0642EA13428283FD
:1012400070470022028B4FF6FB731A400A43028359
:1012500070470022028B4FF6FF331A400B0642EA1A
:101260001342028370470022828B4FF6FB731A40B1
:101270000A43828370470022828B4FF6FF331A4065
:101280000B0642EA1342828370470022028B4FF61C
:101290007F731A400A43028370470022028BC2F315
:1012A0000E020B0642EA1342028370470022828B31
:1012B0004FF67F731A400A43828370470022828B65
:1012C000C2F30E020B0642EA1342828370470022E9
:1012D000028C4FF6FD731A400A43028470470022C5
:1012E000028C4FF6F7731A400A43028470470022BB
:1012F000028C4FF6DF731A400B0542EA1342028458
:1013000070470022028C4FF67F731A400B0542EAA9
:101310001342028470470022028C4FF6FF531A409A
:101320000B0642EA1342028470470022028C4FF2FD
:10133000FF731A400B0642EA1342028470470022F0
:10134000028C4DF6FF731A400B0742EA13420284E7
:10135000704710B5038C01248C40E443A4B22340B1
:101360000384038C02FA01F4A4B22343038410BD66
:1013700010B5038C04248C40E443A4B223400384BE
:10138000038C02FA01F4A4B22343038410BD30B5E8
:10139000038C01248C40E443A4B22340038409B1AC
:1013A000082918D100F1180303EB61031C684FF6FC
:1013B0008F731C4000F1180303EB61031C6000F104
:1013C000180303EB61031C68144300F1180303EBDB
:1013D00061031C6021E00B1F9CB200F1180303EBBA
:1013E00064031C6848F6FF731C400B1F9DB200F19C
:1013F000180303EB65031C600B1F9CB200F118037C
:1014000003EB64031B68140643EA14430C1FA5B2E4
:1014100000F1180404EB6504236030BD21B102889B
:1014200042F00202028004E0028840F2FD331A40DA
:101430000280704721B1028842F00402028004E079
:10144000028840F2FB331A400280704721B1828843
:1014500042F08002828004E082884FF67F731A4057
:1014600082807047028840F2F7331A400280028877
:101470000A430280704782884FF68F731A40828039
:1014800082880A438280704702894FF6F8731A40B7
:10149000028102890A430281704702894FF67F73F5
:1014A0001A40028102890A43028170478184704791
:1014B00081857047818670470187704781877047B3
:1014C000A0F8401070470288D2B2028002880A4316
:1014D000028070470146888E70470146088F70472A
:1014E0000146888F70470146B1F8400070470146B9
:1014F000888C70470146088D704702460020138A89
:101500000B4201D0012000E000207047CA43028254
:10151000704730B50246002000230024158A05EAF2
:101520000103958905EA010413B10CB1012000E023
:10153000002030BDCA430282704700000020002115
:10154000434A126842F48032414B1A6000BF404A5D
:10155000126802F40031401C11B9B0F5A06FF6D149
:101560003B4A126812F4003F01D0012100E0002143
:10157000012943D1374A126842F01002354B1A60F4
:101580001A46126822F003021A601A46126842F0E4
:1015900002021A602E4A52682D4B5A601A4652684F
:1015A0005A601A46526842F480625A601A4652687B
:1015B00022F47C125A601A46526842F4E8125A60C9
:1015C0001A46126842F080721A6000BF204A126800
:1015D00012F0007FFAD01E4A526822F003021C4B20
:1015E0005A601A46526842F002025A6000BF184A16
:1015F000526802F00C02082AF9D101E000BFFEE7B0
:10160000704710B5FFF79AFF10BD10B5104800687D
:1016100040F001000E490860084640680E49084045
:101620000B494860084600680C49084008490860B2
:101630000846006820F4802008600846406820F4CE
:10164000FE00486000208860FFF7DBFF10BD00004F
:1016500000100240002002400000FFF8FFFFF6FEED
:1016600032490143324A1160704770B500210023AE
:101670000F22C4780CB32E4C246804F4E064C4F543
:10168000E064210AC1F10403CA40447804FA03F17A
:101690008478144021430901264C0678A15504782A
:1016A00004F01F050124AC4005786D114FF0E026D1
:1016B00006EB8505C5F8004109E0047804F01F0435
:1016C0000125A5401C4C0678761144F8265070BDC3
:1016D0001A4A0A400243164B1B1F1A60704741B159
:1016E000134A121D126802434FF0E023C3F8102D75
:1016F00007E00F4A121D126882434FF0E023C3F83F
:10170000102D7047042808D14FF0E021096941F0FD
:1017100004014FF0E022116107E04FF0E021096978
:1017200021F004014FF0E022116170470000FA053A
:101730000CED00E000E400E080E100E080FFFF1F2E
:101740000020504908605049C1F804044D4908314F
:101750000860091D08604D484A4914310860704707
:10176000817900294CD04849D1F80014026891438E
:10177000454AC2F800141146D1F804140268914396
:10178000404A121D116001793F4A1144D1F80014FA
:101790000268114302793C4B1A44C2F800141946FE
:1017A000D1F80814026891431A46C2F80814114689
:1017B000D1F80C1402689143324A0C32116041791D
:1017C000102910D11946D1F80814026811431A469D
:1017D000C2F808141146D1F80C14026811431A46D5
:1017E000C2F80C1418E04179274A1144D1F80014CA
:1017F000026811434279244B1A44C2F800140BE0EA
:101800000179214A1144D1F8001402689143027908
:101810001D4B1A44C2F80014704700210160017189
:101820000C214171002181717047164910310968FE
:101830000143154AC2F81014704701460020114AAE
:10184000143212680A4201D0012000E000207047E3
:101850000C49143108607047014600200022094BF2
:101860001B6803EA0102084BD3F814340B4202D080
:101870000AB1012000E000207047024914310860DD
:10188000704700000004014000000140FFFF070016
:1018900010B50446C149601A8C422FD009DCC048FB
:1018A000201810D0B0F5806F16D0B0F5006F4AD177
:1018B0001BE0B0F5806F2AD0B0F5006F30D0B0F5E6
:1018C000406F40D135E001210420FFF761F800218D
:1018D0000420FFF75DF837E001210820FFF758F8F2
:1018E00000210820FFF754F82EE001211020FFF717
:1018F0004FF800211020FFF74BF825E001212020B0
:10190000FFF746F800212020FFF742F81CE00121F4
:101910004020FFF73DF800214020FFF739F813E0A1
:1019200001218020FFF734F800218020FFF730F8F4
:101930000AE001210802FFF72BF800214FF4807024
:10194000FFF726F800E000BF00BF10BD10B5012171
:101950000846FFF71DF800210120FFF719F810BD18
:10196000F0B500220023002400250026002791F86E
:1019700003C00CF00F0291F803C01CF0100F03D04D
:1019800091F802C04CEA0202B1F800C01CF0FF0F4F
:1019900031D0066800242BE04FF0010C0CFA04F55E
:1019A000B1F800C00CEA0503AB4220D1A5004FF00E
:1019B0000F0C0CFA05F7BE4302FA05FC4CEA0606CA
:1019C00091F803C0BCF1280F06D14FF0010C0CFABE
:1019D00004FCC0F814C00AE091F803C0BCF1480F41
:1019E00005D14FF0010C0CFA04FCC0F810C0641CC7
:1019F000082CD1D30660B1F800C0BCF1FF0F34DD74
:101A0000466800242EE004F1080C4FF0010E0EFA97
:101A10000CF5B1F800C00CEA0503AB4221D1A500DA
:101A20004FF00F0C0CFA05F7BE4302FA05FC4CEA26
:101A3000060691F803C0BCF1280F05D104F1080C8B
:101A40000EFA0CFEC0F814E091F803C0BCF1480F88
:101A500007D104F1080C4FF0010E0EFA0CFEC0F88D
:101A600010E0641C082CCED34660F0BD4FF6FF7129
:101A70000180022181700421C1707047024600205C
:101A800093680B4201D0012000E00020704701461E
:101A9000886880B2704702460020D3680B4201D0AC
:101AA000012000E0002070470146C86880B27047FE
:101AB00001617047416170470AB1016100E0416115
:101AC0007047C16070474FF480320A438261816180
:101AD00082618269826970470022324B1A684FF630
:101AE00080731A4042EA00120A432E4B1A60704774
:101AF0002D49C8617047F0B500220023002500245D
:101B0000284E7568C0F3034482B200F44016B6F55F
:101B1000401F08D125F07065224E766826F0706669
:101B2000204F7E6012E000F48016B6F5801F06D1CB
:101B3000032606FA04F39D4345F0706506E0460D62
:101B4000360102FA06F6B54345F0706521B1460D3F
:101B5000360102FA06F63543124E7560F0BD30B517
:101B600000228B071C0F0F2303FA04F20D4B0833DE
:101B70008C1053F8244094438D1043F825408C106A
:101B800053F824308C07240F00FA04F42343054C47
:101B900008348D1044F8253030BD00000014014099
:101BA00000F8FEBF00000140000020420848004746
:101BB000FEE7FEE7FEE7FEE7FEE7FEE7FEE7FEE7FD
:101BC000FEE7FEE703480449024A044B7047000061
:101BD000ED000008900000209002002090000020FE
:101BE000704770477047754600F028F8AE4605000C
:101BF0006946534620F00700854618B020B5FFF728
:101C0000E1FFBDE820404FF000064FF000074FF025
:101C100000084FF0000B21F00701AC46ACE8C0090A
:101C2000ACE8C009ACE8C009ACE8C0098D46704713
:101C30000446AFF300802046FEF7A1FA0048704743
:101C40003000002003494FF01800ABBE7047000081
:101C50000900000026000200704700007C1C0008FC
:101C6000000000201C00000028010008981C00084B
:101C70001C00002074020000440100089000640071
:101C800064000000000001020304010203040607CF
:081C9000080902040608000027
:04000005080000ED02
:00000001FF
